{
  "abi": [
    {
      "inputs": [],
      "name": "hordCongress",
      "outputs": [
        {
          "internalType": "address",
          "name": "",
          "type": "address"
        }
      ],
      "stateMutability": "view",
      "type": "function"
    },
    {
      "inputs": [],
      "name": "maintainersRegistry",
      "outputs": [
        {
          "internalType": "contract IMaintainersRegistry",
          "name": "",
          "type": "address"
        }
      ],
      "stateMutability": "view",
      "type": "function"
    }
  ],
  "bytecode": {
    "object": "0x6080604052348015600f57600080fd5b5060ad8061001e6000396000f3fe6080604052348015600f57600080fd5b506004361060325760003560e01c80636a8f414f146037578063d2e69e47146065575b600080fd5b6000546049906001600160a01b031681565b6040516001600160a01b03909116815260200160405180910390f35b6001546049906001600160a01b03168156fea26469706673582212206e0c6098da118d23ac0a6d986ee150da47f2c09548c058b636b6ff8ccdbbe3a864736f6c63430008170033",
    "linkReferences": {}
  },
  "methodIdentifiers": {
    "hordCongress()": "6a8f414f",
    "maintainersRegistry()": "d2e69e47"
  },
  "id": 43
}