{
  "abi": [
    {
      "inputs": [
        {
          "internalType": "address",
          "name": "",
          "type": "address"
        },
        {
          "internalType": "bytes",
          "name": "",
          "type": "bytes"
        }
      ],
      "name": "PeekerReverted",
      "type": "error"
    },
    {
      "inputs": [],
      "name": "ANYALLOWED",
      "outputs": [
        {
          "internalType": "address",
          "name": "",
          "type": "address"
        }
      ],
      "stateMutability": "view",
      "type": "function"
    },
    {
      "inputs": [],
      "name": "BUILD_ETH_BLOCK",
      "outputs": [
        {
          "internalType": "address",
          "name": "",
          "type": "address"
        }
      ],
      "stateMutability": "view",
      "type": "function"
    },
    {
      "inputs": [],
      "name": "CONFIDENTIAL_INPUTS",
      "outputs": [
        {
          "internalType": "address",
          "name": "",
          "type": "address"
        }
      ],
      "stateMutability": "view",
      "type": "function"
    },
    {
      "inputs": [],
      "name": "CONFIDENTIAL_RETRIEVE",
      "outputs": [
        {
          "internalType": "address",
          "name": "",
          "type": "address"
        }
      ],
      "stateMutability": "view",
      "type": "function"
    },
    {
      "inputs": [],
      "name": "CONFIDENTIAL_STORE",
      "outputs": [
        {
          "internalType": "address",
          "name": "",
          "type": "address"
        }
      ],
      "stateMutability": "view",
      "type": "function"
    },
    {
      "inputs": [],
      "name": "ETHCALL",
      "outputs": [
        {
          "internalType": "address",
          "name": "",
          "type": "address"
        }
      ],
      "stateMutability": "view",
      "type": "function"
    },
    {
      "inputs": [],
      "name": "EXTRACT_HINT",
      "outputs": [
        {
          "internalType": "address",
          "name": "",
          "type": "address"
        }
      ],
      "stateMutability": "view",
      "type": "function"
    },
    {
      "inputs": [],
      "name": "FETCH_BIDS",
      "outputs": [
        {
          "internalType": "address",
          "name": "",
          "type": "address"
        }
      ],
      "stateMutability": "view",
      "type": "function"
    },
    {
      "inputs": [],
      "name": "FILL_MEV_SHARE_BUNDLE",
      "outputs": [
        {
          "internalType": "address",
          "name": "",
          "type": "address"
        }
      ],
      "stateMutability": "view",
      "type": "function"
    },
    {
      "inputs": [],
      "name": "IS_CONFIDENTIAL_ADDR",
      "outputs": [
        {
          "internalType": "address",
          "name": "",
          "type": "address"
        }
      ],
      "stateMutability": "view",
      "type": "function"
    },
    {
      "inputs": [],
      "name": "NEW_BID",
      "outputs": [
        {
          "internalType": "address",
          "name": "",
          "type": "address"
        }
      ],
      "stateMutability": "view",
      "type": "function"
    },
    {
      "inputs": [],
      "name": "SIGN_ETH_TRANSACTION",
      "outputs": [
        {
          "internalType": "address",
          "name": "",
          "type": "address"
        }
      ],
      "stateMutability": "view",
      "type": "function"
    },
    {
      "inputs": [],
      "name": "SIMULATE_BUNDLE",
      "outputs": [
        {
          "internalType": "address",
          "name": "",
          "type": "address"
        }
      ],
      "stateMutability": "view",
      "type": "function"
    },
    {
      "inputs": [],
      "name": "SUBMIT_BUNDLE_JSON_RPC",
      "outputs": [
        {
          "internalType": "address",
          "name": "",
          "type": "address"
        }
      ],
      "stateMutability": "view",
      "type": "function"
    },
    {
      "inputs": [],
      "name": "SUBMIT_ETH_BLOCK_BID_TO_RELAY",
      "outputs": [
        {
          "internalType": "address",
          "name": "",
          "type": "address"
        }
      ],
      "stateMutability": "view",
      "type": "function"
    }
  ],
  "bytecode": {
    "object": "0x61020b61003a600b82828239805160001a60731461002d57634e487b7160e01b600052600060045260246000fd5b30600052607381538281f3fe73000000000000000000000000000000000000000030146080604052600436106100ff5760003560e01c8063ad05aae4116100a1578063d91525db11610070578063d91525db14610199578063de3dafbf146101a4578063f0579759146101bf578063f0608b1c146101ca57600080fd5b8063ad05aae41461016d578063b61b127d14610178578063bc50c00514610183578063c91e11df1461018e57600080fd5b80637320cb17116100dd5780637320cb1714610141578063744795b91461014c578063751afe2c1461015757806394804c691461016257600080fd5b806301c1953014610104578063040e51831461012b57806369094cbc14610136575b600080fd5b61010f634320000181565b6040516001600160a01b03909116815260200160405180910390f35b61010f634210000381565b61010f634201000181565b61010f634203000081565b61010f634010000181565b61010f634210003781565b61010f634210000181565b61010f634202000081565b61010f634210000081565b61010f634210000281565b61010f634203000181565b61010f634201000081565b61010f73c8df3686b4afb2bb53e60eae97ef043fe03fb82981565b61010f634202000181565b61010f63430000018156fea2646970667358221220ea19914e6873c4b4b881a46b9504295fef44648b292fe2f91de0fc58801614c264736f6c63430008170033",
    "linkReferences": {}
  },
  "methodIdentifiers": {
    "ANYALLOWED()": "de3dafbf",
    "BUILD_ETH_BLOCK()": "94804c69",
    "CONFIDENTIAL_INPUTS()": "69094cbc",
    "CONFIDENTIAL_RETRIEVE()": "f0579759",
    "CONFIDENTIAL_STORE()": "ad05aae4",
    "ETHCALL()": "040e5183",
    "EXTRACT_HINT()": "751afe2c",
    "FETCH_BIDS()": "c91e11df",
    "FILL_MEV_SHARE_BUNDLE()": "01c19530",
    "IS_CONFIDENTIAL_ADDR()": "d91525db",
    "NEW_BID()": "7320cb17",
    "SIGN_ETH_TRANSACTION()": "744795b9",
    "SIMULATE_BUNDLE()": "b61b127d",
    "SUBMIT_BUNDLE_JSON_RPC()": "f0608b1c",
    "SUBMIT_ETH_BLOCK_BID_TO_RELAY()": "bc50c005"
  },
  "id": 36
}