{
  "abi": [
    {
      "inputs": [
        {
          "internalType": "address",
          "name": "token",
          "type": "address"
        }
      ],
      "name": "addHPoolToken",
      "outputs": [],
      "stateMutability": "nonpayable",
      "type": "function"
    },
    {
      "inputs": [
        {
          "internalType": "address",
          "name": "",
          "type": "address"
        }
      ],
      "name": "isHPoolToken",
      "outputs": [
        {
          "internalType": "bool",
          "name": "",
          "type": "bool"
        }
      ],
      "stateMutability": "view",
      "type": "function"
    }
  ],
  "bytecode": {
    "object": "0x608060405234801561001057600080fd5b50610100806100206000396000f3fe6080604052348015600f57600080fd5b506004361060325760003560e01c806358662dbb14603757806374bd918d146068575b600080fd5b60666042366004609c565b6001600160a01b03166000908152602081905260409020805460ff19166001179055565b005b60886073366004609c565b60006020819052908152604090205460ff1681565b604051901515815260200160405180910390f35b60006020828403121560ad57600080fd5b81356001600160a01b038116811460c357600080fd5b939250505056fea26469706673582212206ab4e90fcc9222df1df24ed905367a94f9d8cc71c7b56cfc5d60a6333dfd909664736f6c63430008170033",
    "linkReferences": {}
  },
  "methodIdentifiers": {
    "addHPoolToken(address)": "58662dbb",
    "isHPoolToken(address)": "74bd918d"
  },
  "id": 39
}