{
  "abi": [
    {
      "inputs": [
        {
          "internalType": "address",
          "name": "token",
          "type": "address"
        }
      ],
      "name": "addVPoolToken",
      "outputs": [],
      "stateMutability": "nonpayable",
      "type": "function"
    },
    {
      "inputs": [
        {
          "internalType": "address",
          "name": "",
          "type": "address"
        }
      ],
      "name": "isVPoolToken",
      "outputs": [
        {
          "internalType": "bool",
          "name": "",
          "type": "bool"
        }
      ],
      "stateMutability": "view",
      "type": "function"
    }
  ],
  "bytecode": {
    "object": "0x608060405234801561001057600080fd5b50610100806100206000396000f3fe6080604052348015600f57600080fd5b506004361060325760003560e01c80634c98ab65146037578063a0e884d3146068575b600080fd5b60666042366004609c565b6001600160a01b03166000908152602081905260409020805460ff19166001179055565b005b60886073366004609c565b60006020819052908152604090205460ff1681565b604051901515815260200160405180910390f35b60006020828403121560ad57600080fd5b81356001600160a01b038116811460c357600080fd5b939250505056fea2646970667358221220009b1537b3626a75cb2d92b0009225fd1559cb8902648f47e65a920cbde1a25b64736f6c63430008170033",
    "linkReferences": {}
  },
  "methodIdentifiers": {
    "addVPoolToken(address)": "4c98ab65",
    "isVPoolToken(address)": "a0e884d3"
  },
  "id": 42
}