{
  "abi": [
    {
      "inputs": [
        {
          "internalType": "contract IOtc",
          "name": "otc",
          "type": "address"
        },
        {
          "internalType": "address",
          "name": "payToken",
          "type": "address"
        },
        {
          "internalType": "address",
          "name": "buyToken",
          "type": "address"
        }
      ],
      "name": "getOffers",
      "outputs": [
        {
          "internalType": "uint256[100]",
          "name": "ids",
          "type": "uint256[100]"
        },
        {
          "internalType": "uint256[100]",
          "name": "payAmts",
          "type": "uint256[100]"
        },
        {
          "internalType": "uint256[100]",
          "name": "buyAmts",
          "type": "uint256[100]"
        },
        {
          "internalType": "address[100]",
          "name": "owners",
          "type": "address[100]"
        },
        {
          "internalType": "uint256[100]",
          "name": "timestamps",
          "type": "uint256[100]"
        }
      ],
      "stateMutability": "view",
      "type": "function"
    },
    {
      "inputs": [
        {
          "internalType": "contract IOtc",
          "name": "otc",
          "type": "address"
        },
        {
          "internalType": "address",
          "name": "buyToken",
          "type": "address"
        },
        {
          "internalType": "uint256",
          "name": "buyAmt",
          "type": "uint256"
        },
        {
          "internalType": "address",
          "name": "payToken",
          "type": "address"
        }
      ],
      "name": "getOffersAmountToBuyAll",
      "outputs": [
        {
          "internalType": "uint256",
          "name": "ordersToTake",
          "type": "uint256"
        },
        {
          "internalType": "bool",
          "name": "takesPartialOrder",
          "type": "bool"
        }
      ],
      "stateMutability": "view",
      "type": "function"
    },
    {
      "inputs": [
        {
          "internalType": "contract IOtc",
          "name": "otc",
          "type": "address"
        },
        {
          "internalType": "address",
          "name": "payToken",
          "type": "address"
        },
        {
          "internalType": "uint256",
          "name": "payAmt",
          "type": "uint256"
        },
        {
          "internalType": "address",
          "name": "buyToken",
          "type": "address"
        }
      ],
      "name": "getOffersAmountToSellAll",
      "outputs": [
        {
          "internalType": "uint256",
          "name": "ordersToTake",
          "type": "uint256"
        },
        {
          "internalType": "bool",
          "name": "takesPartialOrder",
          "type": "bool"
        }
      ],
      "stateMutability": "view",
      "type": "function"
    },
    {
      "inputs": [
        {
          "internalType": "contract IOtc",
          "name": "otc",
          "type": "address"
        },
        {
          "internalType": "uint256",
          "name": "offerId",
          "type": "uint256"
        }
      ],
      "name": "getOffersWithId",
      "outputs": [
        {
          "internalType": "uint256[100]",
          "name": "ids",
          "type": "uint256[100]"
        },
        {
          "internalType": "uint256[100]",
          "name": "payAmts",
          "type": "uint256[100]"
        },
        {
          "internalType": "uint256[100]",
          "name": "buyAmts",
          "type": "uint256[100]"
        },
        {
          "internalType": "address[100]",
          "name": "owners",
          "type": "address[100]"
        },
        {
          "internalType": "uint256[100]",
          "name": "timestamps",
          "type": "uint256[100]"
        }
      ],
      "stateMutability": "view",
      "type": "function"
    },
    {
      "inputs": [],
      "name": "hordCongress",
      "outputs": [
        {
          "internalType": "address",
          "name": "",
          "type": "address"
        }
      ],
      "stateMutability": "view",
      "type": "function"
    },
    {
      "inputs": [],
      "name": "maintainersRegistry",
      "outputs": [
        {
          "internalType": "contract IMaintainersRegistry",
          "name": "",
          "type": "address"
        }
      ],
      "stateMutability": "view",
      "type": "function"
    }
  ],
  "bytecode": {
    "object": "0x608060405234801561001057600080fd5b50610b2a806100206000396000f3fe608060405234801561001057600080fd5b50600436106100625760003560e01c806311ce7a65146100675780636a8f414f146100945780636d8a35cd146100bf5780639174d449146100d2578063d2e69e47146100fa578063fdd93d4b1461010d575b600080fd5b61007a610075366004610886565b610120565b60405161008b9594939291906108fa565b60405180910390f35b6000546100a7906001600160a01b031681565b6040516001600160a01b03909116815260200161008b565b61007a6100cd366004610971565b6101d4565b6100e56100e036600461099d565b6103af565b6040805192835290151560208301520161008b565b6001546100a7906001600160a01b031681565b6100e561011b36600461099d565b6105e2565b61012861084f565b61013061084f565b61013861084f565b61014061084f565b61014861084f565b604051630374fc6f60e01b81526001600160a01b03888116600483015287811660248301526101c0918a91821690630374fc6f90604401602060405180830381865afa15801561019c573d6000803e3d6000fd5b505050506040513d601f19601f820116820180604052508101906100cd91906109f0565b939c929b5090995097509095509350505050565b6101dc61084f565b6101e461084f565b6101ec61084f565b6101f461084f565b6101fc61084f565b60005b604051634539753560e11b8152600481018890526001600160a01b03891690638a72ea6a9060240160c060405180830381865afa158015610244573d6000803e3d6000fd5b505050506040513d601f19601f820116820180604052508101906102689190610a09565b9293509167ffffffffffffffff16905088856064811061028a5761028a610a89565b602002018886606481106102a0576102a0610a89565b602002018887606481106102b6576102b6610a89565b602002018888606481106102cc576102cc610a89565b60200201939093526001600160a01b039093169091529190525260008382606481106102fa576102fa610a89565b60200201516001600160a01b0316146103a4578686826064811061032057610320610a89565b602002015260405163250e446f60e21b8152600481018890526001600160a01b0389169063943911bc90602401602060405180830381865afa15801561036a573d6000803e3d6000fd5b505050506040513d601f19601f8201168201806040525081019061038e91906109f0565b9650606461039b82610ab5565b915081106101ff575b509295509295909350565b604051630374fc6f60e01b81526001600160a01b03848116600483015282811660248301526000918291829190881690630374fc6f90604401602060405180830381865afa158015610405573d6000803e3d6000fd5b505050506040513d601f19601f8201168201806040525081019061042991906109f0565b604051634539753560e11b81526004810182905260009450909150859084906001600160a01b038a1690638a72ea6a9060240160c060405180830381865afa158015610479573d6000803e3d6000fd5b505050506040513d601f19601f8201168201806040525081019061049d9190610a09565b50939450505050505b808211156105bc57846104b881610ab5565b9550506104c582826107ef565b915081156105b75760405163250e446f60e21b8152600481018490526001600160a01b038a169063943911bc90602401602060405180830381865afa158015610512573d6000803e3d6000fd5b505050506040513d601f19601f8201168201806040525081019061053691906109f0565b92508260000361054557600080fd5b604051634539753560e11b8152600481018490526001600160a01b038a1690638a72ea6a9060240160c060405180830381865afa15801561058a573d6000803e3d6000fd5b505050506040513d601f19601f820116820180604052508101906105ae9190610a09565b50939450505050505b6104a6565b8082146105c957846105d4565b6105d4856001610ace565b999110975095505050505050565b604051630374fc6f60e01b81526001600160a01b03828116600483015284811660248301526000918291829190881690630374fc6f90604401602060405180830381865afa158015610638573d6000803e3d6000fd5b505050506040513d601f19601f8201168201806040525081019061065c91906109f0565b604051634539753560e11b81526004810182905260009450909150859084906001600160a01b038a1690638a72ea6a9060240160c060405180830381865afa1580156106ac573d6000803e3d6000fd5b505050506040513d601f19601f820116820180604052508101906106d09190610a09565b50919450505050505b808211156105bc57846106eb81610ab5565b9550506106f882826107ef565b915081156107ea5760405163250e446f60e21b8152600481018490526001600160a01b038a169063943911bc90602401602060405180830381865afa158015610745573d6000803e3d6000fd5b505050506040513d601f19601f8201168201806040525081019061076991906109f0565b92508260000361077857600080fd5b604051634539753560e11b8152600481018490526001600160a01b038a1690638a72ea6a9060240160c060405180830381865afa1580156107bd573d6000803e3d6000fd5b505050506040513d601f19601f820116820180604052508101906107e19190610a09565b50919450505050505b6106d9565b6000826107fc8382610ae1565b91508111156108495760405162461bcd60e51b815260206004820152601560248201527464732d6d6174682d7375622d756e646572666c6f7760581b604482015260640160405180910390fd5b92915050565b60405180610c8001604052806064906020820280368337509192915050565b6001600160a01b038116811461088357600080fd5b50565b60008060006060848603121561089b57600080fd5b83356108a68161086e565b925060208401356108b68161086e565b915060408401356108c68161086e565b809150509250925092565b8060005b60648110156108f45781518452602093840193909101906001016108d5565b50505050565b613e80810161090982886108d1565b610917610c808301876108d1565b6109256119008301866108d1565b61258082018460005b60648110156109565781516001600160a01b031683526020928301929091019060010161092e565b5050506109676132008301846108d1565b9695505050505050565b6000806040838503121561098457600080fd5b823561098f8161086e565b946020939093013593505050565b600080600080608085870312156109b357600080fd5b84356109be8161086e565b935060208501356109ce8161086e565b92506040850135915060608501356109e58161086e565b939692955090935050565b600060208284031215610a0257600080fd5b5051919050565b60008060008060008060c08789031215610a2257600080fd5b865195506020870151610a348161086e565b604088015160608901519196509450610a4c8161086e565b6080880151909350610a5d8161086e565b60a088015190925067ffffffffffffffff81168114610a7b57600080fd5b809150509295509295509295565b634e487b7160e01b600052603260045260246000fd5b634e487b7160e01b600052601160045260246000fd5b600060018201610ac757610ac7610a9f565b5060010190565b8082018082111561084957610849610a9f565b8181038181111561084957610849610a9f56fea264697066735822122030ae1ee8b5fe43529bdba97e557810e31dd27b312795d0c41e84d30c3393cbad64736f6c63430008170033",
    "linkReferences": {}
  },
  "methodIdentifiers": {
    "getOffers(address,address,address)": "11ce7a65",
    "getOffersAmountToBuyAll(address,address,uint256,address)": "9174d449",
    "getOffersAmountToSellAll(address,address,uint256,address)": "fdd93d4b",
    "getOffersWithId(address,uint256)": "6d8a35cd",
    "hordCongress()": "6a8f414f",
    "maintainersRegistry()": "d2e69e47"
  },
  "id": 22
}