{
  "abi": [
    {
      "inputs": [],
      "name": "EnforcedPause",
      "type": "error"
    },
    {
      "inputs": [],
      "name": "ExpectedPause",
      "type": "error"
    },
    {
      "inputs": [],
      "name": "InvalidInitialization",
      "type": "error"
    },
    {
      "inputs": [],
      "name": "NotInitializing",
      "type": "error"
    },
    {
      "inputs": [],
      "name": "ReentrancyGuardReentrantCall",
      "type": "error"
    },
    {
      "anonymous": false,
      "inputs": [
        {
          "indexed": false,
          "internalType": "uint256",
          "name": "amountEthSpent",
          "type": "uint256"
        },
        {
          "indexed": false,
          "internalType": "uint256",
          "name": "amountHordBurned",
          "type": "uint256"
        }
      ],
      "name": "BuyAndBurn",
      "type": "event"
    },
    {
      "anonymous": false,
      "inputs": [
        {
          "indexed": false,
          "internalType": "address",
          "name": "championAddress",
          "type": "address"
        },
        {
          "indexed": false,
          "internalType": "uint256",
          "name": "amountInHpoolTokens",
          "type": "uint256"
        },
        {
          "indexed": false,
          "internalType": "uint256",
          "name": "amountInBaseTokens",
          "type": "uint256"
        }
      ],
      "name": "ChampionWithdrawFees",
      "type": "event"
    },
    {
      "anonymous": false,
      "inputs": [
        {
          "indexed": false,
          "internalType": "uint256",
          "name": "championFee",
          "type": "uint256"
        },
        {
          "indexed": false,
          "internalType": "uint256",
          "name": "protocolFee",
          "type": "uint256"
        }
      ],
      "name": "FeesTaken",
      "type": "event"
    },
    {
      "anonymous": false,
      "inputs": [
        {
          "indexed": false,
          "internalType": "address",
          "name": "hordTreasury",
          "type": "address"
        }
      ],
      "name": "HordTreasurySet",
      "type": "event"
    },
    {
      "anonymous": false,
      "inputs": [
        {
          "indexed": false,
          "internalType": "uint64",
          "name": "version",
          "type": "uint64"
        }
      ],
      "name": "Initialized",
      "type": "event"
    },
    {
      "anonymous": false,
      "inputs": [
        {
          "indexed": true,
          "internalType": "bytes32",
          "name": "id",
          "type": "bytes32"
        },
        {
          "indexed": true,
          "internalType": "bytes32",
          "name": "pair",
          "type": "bytes32"
        },
        {
          "indexed": true,
          "internalType": "address",
          "name": "maker",
          "type": "address"
        },
        {
          "indexed": false,
          "internalType": "contract IERC20",
          "name": "pay_gem",
          "type": "address"
        },
        {
          "indexed": false,
          "internalType": "contract IERC20",
          "name": "buy_gem",
          "type": "address"
        },
        {
          "indexed": false,
          "internalType": "uint128",
          "name": "pay_amt",
          "type": "uint128"
        },
        {
          "indexed": false,
          "internalType": "uint128",
          "name": "buy_amt",
          "type": "uint128"
        },
        {
          "indexed": false,
          "internalType": "uint64",
          "name": "timestamp",
          "type": "uint64"
        }
      ],
      "name": "LogBump",
      "type": "event"
    },
    {
      "anonymous": false,
      "inputs": [
        {
          "indexed": false,
          "internalType": "uint256",
          "name": "id",
          "type": "uint256"
        }
      ],
      "name": "LogItemUpdate",
      "type": "event"
    },
    {
      "anonymous": false,
      "inputs": [
        {
          "indexed": true,
          "internalType": "bytes32",
          "name": "id",
          "type": "bytes32"
        },
        {
          "indexed": true,
          "internalType": "bytes32",
          "name": "pair",
          "type": "bytes32"
        },
        {
          "indexed": true,
          "internalType": "address",
          "name": "maker",
          "type": "address"
        },
        {
          "indexed": false,
          "internalType": "contract IERC20",
          "name": "pay_gem",
          "type": "address"
        },
        {
          "indexed": false,
          "internalType": "contract IERC20",
          "name": "buy_gem",
          "type": "address"
        },
        {
          "indexed": false,
          "internalType": "uint128",
          "name": "pay_amt",
          "type": "uint128"
        },
        {
          "indexed": false,
          "internalType": "uint128",
          "name": "buy_amt",
          "type": "uint128"
        },
        {
          "indexed": false,
          "internalType": "uint64",
          "name": "timestamp",
          "type": "uint64"
        }
      ],
      "name": "LogKill",
      "type": "event"
    },
    {
      "anonymous": false,
      "inputs": [
        {
          "indexed": true,
          "internalType": "bytes32",
          "name": "id",
          "type": "bytes32"
        },
        {
          "indexed": true,
          "internalType": "bytes32",
          "name": "pair",
          "type": "bytes32"
        },
        {
          "indexed": true,
          "internalType": "address",
          "name": "maker",
          "type": "address"
        },
        {
          "indexed": false,
          "internalType": "contract IERC20",
          "name": "pay_gem",
          "type": "address"
        },
        {
          "indexed": false,
          "internalType": "contract IERC20",
          "name": "buy_gem",
          "type": "address"
        },
        {
          "indexed": false,
          "internalType": "uint128",
          "name": "pay_amt",
          "type": "uint128"
        },
        {
          "indexed": false,
          "internalType": "uint128",
          "name": "buy_amt",
          "type": "uint128"
        },
        {
          "indexed": false,
          "internalType": "uint64",
          "name": "timestamp",
          "type": "uint64"
        }
      ],
      "name": "LogMake",
      "type": "event"
    },
    {
      "anonymous": false,
      "inputs": [
        {
          "indexed": false,
          "internalType": "address",
          "name": "pay_gem",
          "type": "address"
        },
        {
          "indexed": false,
          "internalType": "uint256",
          "name": "min_amount",
          "type": "uint256"
        }
      ],
      "name": "LogMinSell",
      "type": "event"
    },
    {
      "anonymous": false,
      "inputs": [
        {
          "indexed": false,
          "internalType": "uint256",
          "name": "id",
          "type": "uint256"
        }
      ],
      "name": "LogSortedOffer",
      "type": "event"
    },
    {
      "anonymous": false,
      "inputs": [
        {
          "indexed": false,
          "internalType": "bytes32",
          "name": "id",
          "type": "bytes32"
        },
        {
          "indexed": true,
          "internalType": "bytes32",
          "name": "pair",
          "type": "bytes32"
        },
        {
          "indexed": true,
          "internalType": "address",
          "name": "maker",
          "type": "address"
        },
        {
          "indexed": false,
          "internalType": "contract IERC20",
          "name": "pay_gem",
          "type": "address"
        },
        {
          "indexed": false,
          "internalType": "contract IERC20",
          "name": "buy_gem",
          "type": "address"
        },
        {
          "indexed": true,
          "internalType": "address",
          "name": "taker",
          "type": "address"
        },
        {
          "indexed": false,
          "internalType": "uint128",
          "name": "take_amt",
          "type": "uint128"
        },
        {
          "indexed": false,
          "internalType": "uint128",
          "name": "give_amt",
          "type": "uint128"
        },
        {
          "indexed": false,
          "internalType": "uint64",
          "name": "timestamp",
          "type": "uint64"
        }
      ],
      "name": "LogTake",
      "type": "event"
    },
    {
      "anonymous": false,
      "inputs": [
        {
          "indexed": false,
          "internalType": "uint256",
          "name": "pay_amt",
          "type": "uint256"
        },
        {
          "indexed": true,
          "internalType": "address",
          "name": "pay_gem",
          "type": "address"
        },
        {
          "indexed": false,
          "internalType": "uint256",
          "name": "buy_amt",
          "type": "uint256"
        },
        {
          "indexed": true,
          "internalType": "address",
          "name": "buy_gem",
          "type": "address"
        }
      ],
      "name": "LogTrade",
      "type": "event"
    },
    {
      "anonymous": false,
      "inputs": [
        {
          "indexed": false,
          "internalType": "uint256",
          "name": "id",
          "type": "uint256"
        }
      ],
      "name": "LogUnsortedOffer",
      "type": "event"
    },
    {
      "anonymous": false,
      "inputs": [
        {
          "indexed": false,
          "internalType": "address",
          "name": "account",
          "type": "address"
        }
      ],
      "name": "Paused",
      "type": "event"
    },
    {
      "anonymous": false,
      "inputs": [
        {
          "indexed": false,
          "internalType": "uint256",
          "name": "amountInPoolTokens",
          "type": "uint256"
        },
        {
          "indexed": false,
          "internalType": "uint256",
          "name": "amountInBaseTokens",
          "type": "uint256"
        }
      ],
      "name": "ProtocolWithdrawFees",
      "type": "event"
    },
    {
      "anonymous": false,
      "inputs": [
        {
          "indexed": false,
          "internalType": "address",
          "name": "account",
          "type": "address"
        }
      ],
      "name": "Unpaused",
      "type": "event"
    },
    {
      "inputs": [
        {
          "internalType": "address",
          "name": "",
          "type": "address"
        },
        {
          "internalType": "address",
          "name": "",
          "type": "address"
        }
      ],
      "name": "_best",
      "outputs": [
        {
          "internalType": "uint256",
          "name": "",
          "type": "uint256"
        }
      ],
      "stateMutability": "view",
      "type": "function"
    },
    {
      "inputs": [
        {
          "internalType": "address",
          "name": "",
          "type": "address"
        }
      ],
      "name": "_dust",
      "outputs": [
        {
          "internalType": "uint256",
          "name": "",
          "type": "uint256"
        }
      ],
      "stateMutability": "view",
      "type": "function"
    },
    {
      "inputs": [],
      "name": "_head",
      "outputs": [
        {
          "internalType": "uint256",
          "name": "",
          "type": "uint256"
        }
      ],
      "stateMutability": "view",
      "type": "function"
    },
    {
      "inputs": [
        {
          "internalType": "uint256",
          "name": "",
          "type": "uint256"
        }
      ],
      "name": "_near",
      "outputs": [
        {
          "internalType": "uint256",
          "name": "",
          "type": "uint256"
        }
      ],
      "stateMutability": "view",
      "type": "function"
    },
    {
      "inputs": [
        {
          "internalType": "uint256",
          "name": "",
          "type": "uint256"
        }
      ],
      "name": "_rank",
      "outputs": [
        {
          "internalType": "uint256",
          "name": "next",
          "type": "uint256"
        },
        {
          "internalType": "uint256",
          "name": "prev",
          "type": "uint256"
        },
        {
          "internalType": "uint256",
          "name": "delb",
          "type": "uint256"
        }
      ],
      "stateMutability": "view",
      "type": "function"
    },
    {
      "inputs": [
        {
          "internalType": "address",
          "name": "",
          "type": "address"
        },
        {
          "internalType": "address",
          "name": "",
          "type": "address"
        }
      ],
      "name": "_span",
      "outputs": [
        {
          "internalType": "uint256",
          "name": "",
          "type": "uint256"
        }
      ],
      "stateMutability": "view",
      "type": "function"
    },
    {
      "inputs": [
        {
          "internalType": "uint256",
          "name": "_amount",
          "type": "uint256"
        },
        {
          "internalType": "address",
          "name": "_hPoolToken",
          "type": "address"
        }
      ],
      "name": "addTransferFee",
      "outputs": [],
      "stateMutability": "nonpayable",
      "type": "function"
    },
    {
      "inputs": [
        {
          "internalType": "bytes32",
          "name": "id_",
          "type": "bytes32"
        }
      ],
      "name": "bump",
      "outputs": [],
      "stateMutability": "nonpayable",
      "type": "function"
    },
    {
      "inputs": [
        {
          "internalType": "uint256",
          "name": "id",
          "type": "uint256"
        },
        {
          "internalType": "uint256",
          "name": "amount",
          "type": "uint256"
        }
      ],
      "name": "buy",
      "outputs": [
        {
          "internalType": "bool",
          "name": "",
          "type": "bool"
        }
      ],
      "stateMutability": "nonpayable",
      "type": "function"
    },
    {
      "inputs": [
        {
          "internalType": "contract IERC20",
          "name": "buy_gem",
          "type": "address"
        },
        {
          "internalType": "uint256",
          "name": "buy_amt",
          "type": "uint256"
        },
        {
          "internalType": "contract IERC20",
          "name": "pay_gem",
          "type": "address"
        },
        {
          "internalType": "uint256",
          "name": "max_fill_amount",
          "type": "uint256"
        }
      ],
      "name": "buyAllAmount",
      "outputs": [
        {
          "internalType": "uint256",
          "name": "fill_amt",
          "type": "uint256"
        }
      ],
      "stateMutability": "nonpayable",
      "type": "function"
    },
    {
      "inputs": [
        {
          "internalType": "uint256",
          "name": "id",
          "type": "uint256"
        }
      ],
      "name": "cancel",
      "outputs": [
        {
          "internalType": "bool",
          "name": "success",
          "type": "bool"
        }
      ],
      "stateMutability": "nonpayable",
      "type": "function"
    },
    {
      "inputs": [],
      "name": "dustLimit",
      "outputs": [
        {
          "internalType": "uint256",
          "name": "",
          "type": "uint256"
        }
      ],
      "stateMutability": "view",
      "type": "function"
    },
    {
      "inputs": [],
      "name": "dustToken",
      "outputs": [
        {
          "internalType": "contract IERC20",
          "name": "",
          "type": "address"
        }
      ],
      "stateMutability": "view",
      "type": "function"
    },
    {
      "inputs": [
        {
          "internalType": "contract IERC20",
          "name": "sell_gem",
          "type": "address"
        },
        {
          "internalType": "contract IERC20",
          "name": "buy_gem",
          "type": "address"
        }
      ],
      "name": "getBestOffer",
      "outputs": [
        {
          "internalType": "uint256",
          "name": "",
          "type": "uint256"
        }
      ],
      "stateMutability": "view",
      "type": "function"
    },
    {
      "inputs": [
        {
          "internalType": "uint256",
          "name": "id",
          "type": "uint256"
        }
      ],
      "name": "getBetterOffer",
      "outputs": [
        {
          "internalType": "uint256",
          "name": "",
          "type": "uint256"
        }
      ],
      "stateMutability": "view",
      "type": "function"
    },
    {
      "inputs": [
        {
          "internalType": "contract IERC20",
          "name": "buy_gem",
          "type": "address"
        },
        {
          "internalType": "contract IERC20",
          "name": "pay_gem",
          "type": "address"
        },
        {
          "internalType": "uint256",
          "name": "pay_amt",
          "type": "uint256"
        }
      ],
      "name": "getBuyAmount",
      "outputs": [
        {
          "internalType": "uint256",
          "name": "fill_amt",
          "type": "uint256"
        }
      ],
      "stateMutability": "view",
      "type": "function"
    },
    {
      "inputs": [],
      "name": "getFirstUnsortedOffer",
      "outputs": [
        {
          "internalType": "uint256",
          "name": "",
          "type": "uint256"
        }
      ],
      "stateMutability": "view",
      "type": "function"
    },
    {
      "inputs": [
        {
          "internalType": "contract IERC20",
          "name": "pay_gem",
          "type": "address"
        }
      ],
      "name": "getMinSell",
      "outputs": [
        {
          "internalType": "uint256",
          "name": "",
          "type": "uint256"
        }
      ],
      "stateMutability": "view",
      "type": "function"
    },
    {
      "inputs": [
        {
          "internalType": "uint256",
          "name": "id",
          "type": "uint256"
        }
      ],
      "name": "getNextUnsortedOffer",
      "outputs": [
        {
          "internalType": "uint256",
          "name": "",
          "type": "uint256"
        }
      ],
      "stateMutability": "view",
      "type": "function"
    },
    {
      "inputs": [
        {
          "internalType": "uint256",
          "name": "id",
          "type": "uint256"
        }
      ],
      "name": "getOffer",
      "outputs": [
        {
          "internalType": "uint256",
          "name": "",
          "type": "uint256"
        },
        {
          "internalType": "contract IERC20",
          "name": "",
          "type": "address"
        },
        {
          "internalType": "uint256",
          "name": "",
          "type": "uint256"
        },
        {
          "internalType": "contract IERC20",
          "name": "",
          "type": "address"
        }
      ],
      "stateMutability": "view",
      "type": "function"
    },
    {
      "inputs": [
        {
          "internalType": "contract IERC20",
          "name": "sell_gem",
          "type": "address"
        },
        {
          "internalType": "contract IERC20",
          "name": "buy_gem",
          "type": "address"
        }
      ],
      "name": "getOfferCount",
      "outputs": [
        {
          "internalType": "uint256",
          "name": "",
          "type": "uint256"
        }
      ],
      "stateMutability": "view",
      "type": "function"
    },
    {
      "inputs": [
        {
          "internalType": "uint256",
          "name": "id",
          "type": "uint256"
        }
      ],
      "name": "getOwner",
      "outputs": [
        {
          "internalType": "address",
          "name": "owner",
          "type": "address"
        }
      ],
      "stateMutability": "view",
      "type": "function"
    },
    {
      "inputs": [
        {
          "internalType": "contract IERC20",
          "name": "pay_gem",
          "type": "address"
        },
        {
          "internalType": "contract IERC20",
          "name": "buy_gem",
          "type": "address"
        },
        {
          "internalType": "uint256",
          "name": "buy_amt",
          "type": "uint256"
        }
      ],
      "name": "getPayAmount",
      "outputs": [
        {
          "internalType": "uint256",
          "name": "fill_amt",
          "type": "uint256"
        }
      ],
      "stateMutability": "view",
      "type": "function"
    },
    {
      "inputs": [
        {
          "internalType": "uint256",
          "name": "id",
          "type": "uint256"
        }
      ],
      "name": "getWorseOffer",
      "outputs": [
        {
          "internalType": "uint256",
          "name": "",
          "type": "uint256"
        }
      ],
      "stateMutability": "view",
      "type": "function"
    },
    {
      "inputs": [],
      "name": "hPoolManager",
      "outputs": [
        {
          "internalType": "contract IHPoolManager",
          "name": "",
          "type": "address"
        }
      ],
      "stateMutability": "view",
      "type": "function"
    },
    {
      "inputs": [],
      "name": "hordCongress",
      "outputs": [
        {
          "internalType": "address",
          "name": "",
          "type": "address"
        }
      ],
      "stateMutability": "view",
      "type": "function"
    },
    {
      "inputs": [],
      "name": "hordTreasury",
      "outputs": [
        {
          "internalType": "contract IHordTreasury",
          "name": "",
          "type": "address"
        }
      ],
      "stateMutability": "view",
      "type": "function"
    },
    {
      "inputs": [
        {
          "internalType": "address",
          "name": "_hordCongress",
          "type": "address"
        },
        {
          "internalType": "address",
          "name": "_maintainersRegistry",
          "type": "address"
        },
        {
          "internalType": "address",
          "name": "_orderbookConfiguration",
          "type": "address"
        },
        {
          "internalType": "address",
          "name": "_hPoolManager",
          "type": "address"
        },
        {
          "internalType": "address",
          "name": "_vPoolManager",
          "type": "address"
        },
        {
          "internalType": "address",
          "name": "_hordTreasury",
          "type": "address"
        }
      ],
      "name": "initialize",
      "outputs": [],
      "stateMutability": "nonpayable",
      "type": "function"
    },
    {
      "inputs": [
        {
          "internalType": "uint256",
          "name": "id",
          "type": "uint256"
        }
      ],
      "name": "isActive",
      "outputs": [
        {
          "internalType": "bool",
          "name": "active",
          "type": "bool"
        }
      ],
      "stateMutability": "view",
      "type": "function"
    },
    {
      "inputs": [
        {
          "internalType": "uint256",
          "name": "id",
          "type": "uint256"
        }
      ],
      "name": "isOfferSorted",
      "outputs": [
        {
          "internalType": "bool",
          "name": "",
          "type": "bool"
        }
      ],
      "stateMutability": "view",
      "type": "function"
    },
    {
      "inputs": [
        {
          "internalType": "bytes32",
          "name": "id",
          "type": "bytes32"
        }
      ],
      "name": "kill",
      "outputs": [],
      "stateMutability": "nonpayable",
      "type": "function"
    },
    {
      "inputs": [],
      "name": "last_offer_id",
      "outputs": [
        {
          "internalType": "uint256",
          "name": "",
          "type": "uint256"
        }
      ],
      "stateMutability": "view",
      "type": "function"
    },
    {
      "inputs": [],
      "name": "locked",
      "outputs": [
        {
          "internalType": "bool",
          "name": "",
          "type": "bool"
        }
      ],
      "stateMutability": "view",
      "type": "function"
    },
    {
      "inputs": [],
      "name": "maintainersRegistry",
      "outputs": [
        {
          "internalType": "contract IMaintainersRegistry",
          "name": "",
          "type": "address"
        }
      ],
      "stateMutability": "view",
      "type": "function"
    },
    {
      "inputs": [
        {
          "internalType": "uint256",
          "name": "pay_amt",
          "type": "uint256"
        },
        {
          "internalType": "contract IERC20",
          "name": "pay_gem",
          "type": "address"
        },
        {
          "internalType": "uint256",
          "name": "buy_amt",
          "type": "uint256"
        },
        {
          "internalType": "contract IERC20",
          "name": "buy_gem",
          "type": "address"
        },
        {
          "internalType": "uint256",
          "name": "pos",
          "type": "uint256"
        }
      ],
      "name": "offer",
      "outputs": [
        {
          "internalType": "uint256",
          "name": "",
          "type": "uint256"
        }
      ],
      "stateMutability": "nonpayable",
      "type": "function"
    },
    {
      "inputs": [
        {
          "internalType": "uint256",
          "name": "pay_amt",
          "type": "uint256"
        },
        {
          "internalType": "contract IERC20",
          "name": "pay_gem",
          "type": "address"
        },
        {
          "internalType": "uint256",
          "name": "buy_amt",
          "type": "uint256"
        },
        {
          "internalType": "contract IERC20",
          "name": "buy_gem",
          "type": "address"
        },
        {
          "internalType": "uint256",
          "name": "pos",
          "type": "uint256"
        },
        {
          "internalType": "bool",
          "name": "rounding",
          "type": "bool"
        }
      ],
      "name": "offerWithRounding",
      "outputs": [
        {
          "internalType": "uint256",
          "name": "",
          "type": "uint256"
        }
      ],
      "stateMutability": "nonpayable",
      "type": "function"
    },
    {
      "inputs": [
        {
          "internalType": "uint256",
          "name": "",
          "type": "uint256"
        }
      ],
      "name": "offers",
      "outputs": [
        {
          "internalType": "uint256",
          "name": "pay_amt",
          "type": "uint256"
        },
        {
          "internalType": "contract IERC20",
          "name": "pay_gem",
          "type": "address"
        },
        {
          "internalType": "uint256",
          "name": "buy_amt",
          "type": "uint256"
        },
        {
          "internalType": "contract IERC20",
          "name": "buy_gem",
          "type": "address"
        },
        {
          "internalType": "address",
          "name": "owner",
          "type": "address"
        },
        {
          "internalType": "uint64",
          "name": "timestamp",
          "type": "uint64"
        }
      ],
      "stateMutability": "view",
      "type": "function"
    },
    {
      "inputs": [],
      "name": "orderbookConfiguration",
      "outputs": [
        {
          "internalType": "contract IOrderbookConfiguration",
          "name": "",
          "type": "address"
        }
      ],
      "stateMutability": "view",
      "type": "function"
    },
    {
      "inputs": [],
      "name": "pause",
      "outputs": [],
      "stateMutability": "nonpayable",
      "type": "function"
    },
    {
      "inputs": [],
      "name": "paused",
      "outputs": [
        {
          "internalType": "bool",
          "name": "",
          "type": "bool"
        }
      ],
      "stateMutability": "view",
      "type": "function"
    },
    {
      "inputs": [
        {
          "internalType": "address",
          "name": "",
          "type": "address"
        }
      ],
      "name": "poolToChampionFee",
      "outputs": [
        {
          "internalType": "uint256",
          "name": "totalTransferFeesInPoolTokens",
          "type": "uint256"
        },
        {
          "internalType": "uint256",
          "name": "availableTransferFeesInPoolTokens",
          "type": "uint256"
        },
        {
          "internalType": "uint256",
          "name": "totalTradingFeesInStableCoin",
          "type": "uint256"
        },
        {
          "internalType": "uint256",
          "name": "availableTradingFeesInStableCoin",
          "type": "uint256"
        }
      ],
      "stateMutability": "view",
      "type": "function"
    },
    {
      "inputs": [
        {
          "internalType": "address",
          "name": "",
          "type": "address"
        }
      ],
      "name": "poolToPlatformFee",
      "outputs": [
        {
          "internalType": "uint256",
          "name": "totalTransferFeesInPoolTokens",
          "type": "uint256"
        },
        {
          "internalType": "uint256",
          "name": "availableTransferFeesInPoolTokens",
          "type": "uint256"
        },
        {
          "internalType": "uint256",
          "name": "totalTradingFeesInStableCoin",
          "type": "uint256"
        },
        {
          "internalType": "uint256",
          "name": "availableTradingFeesInStableCoin",
          "type": "uint256"
        }
      ],
      "stateMutability": "view",
      "type": "function"
    },
    {
      "inputs": [
        {
          "internalType": "contract IERC20",
          "name": "pay_gem",
          "type": "address"
        },
        {
          "internalType": "uint256",
          "name": "pay_amt",
          "type": "uint256"
        },
        {
          "internalType": "contract IERC20",
          "name": "buy_gem",
          "type": "address"
        },
        {
          "internalType": "uint256",
          "name": "min_fill_amount",
          "type": "uint256"
        }
      ],
      "name": "sellAllAmount",
      "outputs": [
        {
          "internalType": "uint256",
          "name": "fill_amt",
          "type": "uint256"
        }
      ],
      "stateMutability": "nonpayable",
      "type": "function"
    },
    {
      "inputs": [
        {
          "internalType": "bytes32",
          "name": "id",
          "type": "bytes32"
        },
        {
          "internalType": "uint128",
          "name": "maxTakeAmount",
          "type": "uint128"
        }
      ],
      "name": "take",
      "outputs": [],
      "stateMutability": "nonpayable",
      "type": "function"
    },
    {
      "inputs": [],
      "name": "unpause",
      "outputs": [],
      "stateMutability": "nonpayable",
      "type": "function"
    },
    {
      "inputs": [],
      "name": "vPoolManager",
      "outputs": [
        {
          "internalType": "contract IVPoolManager",
          "name": "",
          "type": "address"
        }
      ],
      "stateMutability": "view",
      "type": "function"
    },
    {
      "inputs": [
        {
          "internalType": "address",
          "name": "pool",
          "type": "address"
        },
        {
          "internalType": "uint256",
          "name": "poolId",
          "type": "uint256"
        }
      ],
      "name": "withdrawChampionTradingAndTransferFee",
      "outputs": [],
      "stateMutability": "nonpayable",
      "type": "function"
    },
    {
      "inputs": [
        {
          "internalType": "address",
          "name": "pool",
          "type": "address"
        }
      ],
      "name": "withdrawProtocolFee",
      "outputs": [],
      "stateMutability": "nonpayable",
      "type": "function"
    }
  ],
  "bytecode": {
    "object": "0x608060405234801561001057600080fd5b5061524b806100206000396000f3fe608060405234801561001057600080fd5b50600436106102a05760003560e01c806382afd23b11610167578063c2d526aa116100ce578063d2e69e4711610087578063d2e69e4714610854578063d6febde814610867578063dd2db87f1461087a578063f39370801461088d578063f6b5b4b2146108a0578063ff1fd974146108b357600080fd5b8063c2d526aa146107a1578063c41a360a146107eb578063cc2a9a5b14610818578063cf3090121461082b578063cf71efa914610838578063d2b420ce1461084157600080fd5b806391be90c81161012057806391be90c814610705578063943911bc146107255780639eb1313414610748578063a28ff2d01461075b578063a78d43161461076e578063b4f9b6c81461078e57600080fd5b806382afd23b146106175780638456cb591461062a578063899111b7146106325780638a72ea6a1461063b5780638af82a2e146106dd578063911550f4146106e557600080fd5b8063496064551161020b5780636a8f414f116101c45780636a8f414f146105675780637238c9151461057a57806374c1d7d31461058d578063779997c3146105b85780637ca9429a146105cb5780638185402b1461060457600080fd5b806349606455146104b5578063511fa487146104c85780635c975abb146104f157806361f54a7914610509578063668fb6dc14610529578063677170e11461053c57600080fd5b8063232cae0b1161025d578063232cae0b1461036e57806337e0376b146103775780633f4ba83a146103a257806340e58ee5146103aa5780634579268a146103cd5780634699b0061461048057600080fd5b80630374fc6f146102a55780630621b4f6146102cb57806310814647146102de578063142b9ea114610333578063144a2752146103485780631b33d4121461035b575b600080fd5b6102b86102b3366004614b3f565b6108c6565b6040519081526020015b60405180910390f35b6102b86102d9366004614b78565b6108f3565b6103136102ec366004614bc0565b60056020526000908152604090208054600182015460028301546003909301549192909184565b6040805194855260208501939093529183015260608201526080016102c2565b610346610341366004614bdd565b610a96565b005b6102b8610356366004614c09565b611003565b6102b8610369366004614c4a565b6110f3565b6102b860025481565b60085461038a906001600160a01b031681565b6040516001600160a01b0390911681526020016102c2565b61034661138e565b6103bd6103b8366004614c9c565b6113f2565b60405190151581526020016102c2565b6104556103db366004614c9c565b600090815260046020818152604092839020835160c081018552815480825260018301546001600160a01b039081169483018590526002840154968301879052600384015481166060840181905293909501549485166080830152600160a01b9094046001600160401b031660a090910152919390929190565b604080519485526001600160a01b0393841660208601528401919091521660608201526080016102c2565b61031361048e366004614bc0565b60066020526000908152604090208054600182015460028301546003909301549192909184565b6103466104c3366004614cb5565b61162f565b6102b86104d6366004614bc0565b6001600160a01b03166000908152600f602052604090205490565b6000805160206151d68339815191525460ff166103bd565b6102b8610517366004614c9c565b60009081526010602052604090205490565b610346610537366004614bc0565b611696565b6102b861054a366004614b3f565b600e60209081526000928352604080842090915290825290205481565b60005461038a906001600160a01b031681565b600b5461038a906001600160a01b031681565b6102b861059b366004614b3f565b600d60209081526000928352604080842090915290825290205481565b6103466105c6366004614c9c565b611b9a565b6102b86105d9366004614b3f565b6001600160a01b039182166000908152600e6020908152604080832093909416825291909152205490565b6102b8610612366004614b78565b611ca1565b6103bd610625366004614c9c565b611e15565b610346611e3d565b6102b860115481565b61069a610649366004614c9c565b60046020819052600091825260409091208054600182015460028301546003840154939094015491936001600160a01b0391821693909290821691811690600160a01b90046001600160401b031686565b604080519687526001600160a01b039586166020880152860193909352908316606085015290911660808301526001600160401b031660a082015260c0016102c2565b6011546102b8565b6102b86106f3366004614c9c565b6000908152600c602052604090205490565b6102b8610713366004614bc0565b600f6020526000908152604090205481565b6102b8610733366004614c9c565b6000908152600c602052604090206001015490565b600a5461038a906001600160a01b031681565b60075461038a906001600160a01b031681565b6102b861077c366004614c9c565b60106020526000908152604090205481565b61034661079c366004614c9c565b611e9f565b6107d06107af366004614c9c565b600c6020526000908152604090208054600182015460029092015490919083565b604080519384526020840192909252908201526060016102c2565b61038a6107f9366004614c9c565b600090815260046020819052604090912001546001600160a01b031690565b610346610826366004614ce6565b611efc565b6003546103bd9060ff1681565b6102b860125481565b6103bd61084f366004614c9c565b61228e565b60015461038a906001600160a01b031681565b6103bd610875366004614d68565b6122fe565b60095461038a906001600160a01b031681565b61034661089b366004614d8a565b612363565b6102b86108ae366004614dbd565b6125cb565b6102b86108c1366004614c09565b612917565b6001600160a01b038083166000908152600d60209081526040808320938516835292905220545b92915050565b60006108fd6129cc565b60035460ff16156109295760405162461bcd60e51b815260040161092090614e16565b60405180910390fd5b60005b8415610a6d5761093c84876108c6565b90508060000361095e5760405162461bcd60e51b815260040161092090614e42565b60008181526004602052604090206002810154905461097d91906129fd565b61098f86670de0b6b3a7640000614e87565b10610a6d576000818152600460205260409020600201548510610a08576000818152600460205260409020546109c6908390612a2a565b6000828152600460205260409020600201549092506109e6908690612a7f565b600082815260046020526040902054909550610a0390829061162f565b61092c565b6000633b9aca00610a41610a1c8883614e87565b60008581526004602052604090208054600290910154610a3c9190612ad5565b612af1565b610a4b9190614e9e565b9050610a578382612a2a565b9250610a63828261162f565b600095505061092c565b82821015610a8d5760405162461bcd60e51b815260040161092090614ec0565b50949350505050565b610a9e612b24565b6007546040516374bd918d60e01b81526001600160a01b038481166004830152909116906374bd918d90602401602060405180830381865afa158015610ae8573d6000803e3d6000fd5b505050506040513d601f19601f82011682018060405250810190610b0c9190614f06565b80610b80575060085460405163a0e884d360e01b81526001600160a01b0384811660048301529091169063a0e884d390602401602060405180830381865afa158015610b5c573d6000803e3d6000fd5b505050506040513d601f19601f82011682018060405250810190610b809190614f06565b610bc55760405162461bcd60e51b8152602060048201526016602482015275141bdbdb151bdad95b881a5cc81b9bdd081d985b1a5960521b6044820152606401610920565b6007546040516374bd918d60e01b81526001600160a01b03848116600483015260009216906374bd918d90602401602060405180830381865afa158015610c10573d6000803e3d6000fd5b505050506040513d601f19601f82011682018060405250810190610c349190614f06565b15610cbb57600754604051632f380b3560e01b8152600481018490526001600160a01b0390911690632f380b359060240161018060405180830381865afa158015610c83573d6000803e3d6000fd5b505050506040513d601f19601f82011682018060405250810190610ca79190614f23565b50979a50610d349950505050505050505050565b600854604051632f380b3560e01b8152600481018490526001600160a01b0390911690632f380b359060240161010060405180830381865afa158015610d05573d6000803e3d6000fd5b505050506040513d601f19601f82011682018060405250810190610d299190614fcb565b509496505050505050505b6001600160a01b0381163314610d9f5760405162461bcd60e51b815260206004820152602a60248201527f4f6e6c79206368616d70696f6e2063616e20776974686472617720686973207060448201526937b7b62a37b5b2b7399760b11b6064820152608401610920565b6001600160a01b038316600081815260056020526040808220600101805490839055905163a9059cbb60e01b81523360048201526024810182905290929063a9059cbb906044016020604051808303816000875af1158015610e05573d6000803e3d6000fd5b505050506040513d601f19601f82011682018060405250810190610e299190614f06565b905080610e6a5760405162461bcd60e51b815260206004820152600f60248201526e3330b4b632b2103a3930b739b332b960891b6044820152606401610920565b6001600160a01b0380861660009081526005602090815260408083206003018054939055600a548151637238c91560e01b8152915193941692637238c915926004808401939192918290030181865afa158015610ecb573d6000803e3d6000fd5b505050506040513d601f19601f82011682018060405250810190610eef919061503e565b60405163a9059cbb60e01b8152336004820152602481018390526001600160a01b03919091169063a9059cbb906044016020604051808303816000875af1158015610f3e573d6000803e3d6000fd5b505050506040513d601f19601f82011682018060405250810190610f629190614f06565b915081610fa35760405162461bcd60e51b815260206004820152600f60248201526e3330b4b632b2103a3930b739b332b960891b6044820152606401610920565b60408051338152602081018590529081018290527f5ea7e0dbbe02f60a501e03c58e552d564f997a6ec3390bbe8fb53eebb453ac809060600160405180910390a150505050610fff60016000805160206151f683398151915255565b5050565b60008061101085856108c6565b90505b6000818152600460205260409020600201548311156110a557600081815260046020526040902054611046908390612a2a565b600082815260046020526040902060020154909250611066908490612a7f565b925082156110a0576000908152600c6020526040812060010154908190036110a05760405162461bcd60e51b815260040161092090614e42565b611013565b6110ea82633b9aca006110db6110bb8783614e87565b60008681526004602052604090208054600290910154610a3c9190612ad5565b6110e59190614e9e565b612a2a565b95945050505050565b60006110fd6129cc565b6007546040516374bd918d60e01b81526001600160a01b038088166004830152879286929116906374bd918d90602401602060405180830381865afa15801561114a573d6000803e3d6000fd5b505050506040513d601f19601f8201168201806040525081019061116e9190614f06565b80156111875750600b546001600160a01b038281169116145b8061121457506007546040516374bd918d60e01b81526001600160a01b038381166004830152909116906374bd918d90602401602060405180830381865afa1580156111d7573d6000803e3d6000fd5b505050506040513d601f19601f820116820180604052508101906111fb9190614f06565b80156112145750600b546001600160a01b038381169116145b806112a1575060085460405163a0e884d360e01b81526001600160a01b0384811660048301529091169063a0e884d390602401602060405180830381865afa158015611264573d6000803e3d6000fd5b505050506040513d601f19601f820116820180604052508101906112889190614f06565b80156112a15750600b546001600160a01b038281169116145b8061132e575060085460405163a0e884d360e01b81526001600160a01b0383811660048301529091169063a0e884d390602401602060405180830381865afa1580156112f1573d6000803e3d6000fd5b505050506040513d601f19601f820116820180604052508101906113159190614f06565b801561132e5750600b546001600160a01b038381169116145b6113735760405162461bcd60e51b81526020600482015260166024820152752a3432903830b4b91034b9903737ba103b30b634b21760511b6044820152606401610920565b611382888888888860016125cb565b98975050505050505050565b6000546001600160a01b031633146113e85760405162461bcd60e51b815260206004820181905260248201527f52657374726963746564206f6e6c7920746f20486f7264436f6e67726573732e6044820152606401610920565b6113f0612b70565b565b60006113fc6129cc565b8161140681611e15565b6114685760405162461bcd60e51b815260206004820152602d60248201527f4f66666572207761732064656c65746564206f722074616b656e2c206f72206e60448201526c32bb32b91032bc34b9ba32b21760991b6064820152608401610920565b600081815260046020819052604090912001546001600160a01b03163314806114bf5750600081815260046020818152604080842060018101546001600160a01b03168552600f8352908420549385905291905254105b61153f5760405162461bcd60e51b8152602060048201526044602482018190527f4f666665722063616e206e6f742062652063616e63656c6c6564206265636175908201527f73652075736572206973206e6f74206f776e6572206e6f72206120647573742060648201526337b7329760e11b608482015260a401610920565b60035460ff16156115625760405162461bcd60e51b815260040161092090614e16565b61156b8361228e565b156115ca5761157983612bd0565b6115c55760405162461bcd60e51b815260206004820152601b60248201527f52657665727420696e205f756e736f72742066756e6374696f6e2e00000000006044820152606401610920565b61161f565b6115d383612ea7565b61161f5760405162461bcd60e51b815260206004820152601960248201527f52657665727420696e205f686964652066756e6374696f6e2e000000000000006044820152606401610920565b61162883612f9a565b9392505050565b6116376129cc565b61164a826001600160801b0383166122fe565b610fff5760405162461bcd60e51b815260206004820152601760248201527f52657665727420696e206275792066756e6374696f6e2e0000000000000000006044820152606401610920565b61169e612b24565b600154604051636eab9b3560e11b81523360048201526001600160a01b039091169063dd57366a90602401602060405180830381865afa1580156116e6573d6000803e3d6000fd5b505050506040513d601f19601f8201168201806040525081019061170a9190614f06565b6117565760405162461bcd60e51b815260206004820152601e60248201527f52657374726963746564206f6e6c7920746f206d61696e7461696e65722e00006044820152606401610920565b6007546040516374bd918d60e01b81526001600160a01b038381166004830152909116906374bd918d90602401602060405180830381865afa1580156117a0573d6000803e3d6000fd5b505050506040513d601f19601f820116820180604052508101906117c49190614f06565b80611838575060085460405163a0e884d360e01b81526001600160a01b0383811660048301529091169063a0e884d390602401602060405180830381865afa158015611814573d6000803e3d6000fd5b505050506040513d601f19601f820116820180604052508101906118389190614f06565b61187d5760405162461bcd60e51b8152602060048201526016602482015275141bdbdb151bdad95b881a5cc81b9bdd081d985b1a5960521b6044820152606401610920565b6001600160a01b038181166000818152600660205260408082206001018054929055600954905163095ea7b360e01b815293166004840152602483018190529163095ea7b3906044016020604051808303816000875af11580156118e5573d6000803e3d6000fd5b505050506040513d601f19601f820116820180604052508101906119099190614f06565b506009546040516319c5aef560e11b81526001600160a01b038481166004830152602482018490529091169063338b5dea90604401600060405180830381600087803b15801561195857600080fd5b505af115801561196c573d6000803e3d6000fd5b5050506001600160a01b0380841660009081526006602090815260408083206003018054939055600a548151637238c91560e01b8152915193955090931692637238c91592600480830193928290030181865afa1580156119d1573d6000803e3d6000fd5b505050506040513d601f19601f820116820180604052508101906119f5919061503e565b60095460405163095ea7b360e01b81526001600160a01b0391821660048201526024810184905291169063095ea7b3906044016020604051808303816000875af1158015611a47573d6000803e3d6000fd5b505050506040513d601f19601f82011682018060405250810190611a6b9190614f06565b50600954600a5460408051637238c91560e01b815290516001600160a01b039384169363338b5dea931691637238c9159160048083019260209291908290030181865afa158015611ac0573d6000803e3d6000fd5b505050506040513d601f19601f82011682018060405250810190611ae4919061503e565b6040516001600160e01b031960e084901b1681526001600160a01b03909116600482015260248101849052604401600060405180830381600087803b158015611b2c57600080fd5b505af1158015611b40573d6000803e3d6000fd5b505060408051858152602081018590527f111198cefc29b2eaf02cf1bb36e80ecb2a8589657291d37346dc64f148a8478e935001905060405180910390a15050611b9760016000805160206151f683398151915255565b50565b80611ba481611e15565b611bc05760405162461bcd60e51b81526004016109209061505b565b600082815260046020818152604092839020918201546001830154600390930154935186946001600160a01b0392831694611c0394908416939091169101615089565b60408051808303601f1901815282825280516020918201206000868152600492839052929092206001810154600382015482546002840154939094015494958a957f70a14c213064359ede031fd2a1645a11ce2ec825ffe6ab5cfb5b160c3ef4d0a295611c94956001600160a01b03958616959094169390929091600160a01b90046001600160401b0316906150b0565b60405180910390a4505050565b6000611cab6129cc565b60035460ff1615611cce5760405162461bcd60e51b815260040161092090614e16565b60005b8415611df557611ce186856108c6565b905080600003611d035760405162461bcd60e51b815260040161092090614e42565b60008181526004602052604090208054600290910154611d2391906129fd565b611d3586670de0b6b3a7640000614e87565b10611df5576000818152600460205260409020548510611dab57600081815260046020526040902060020154611d6c908390612a2a565b600082815260046020526040902054909250611d89908690612a7f565b600082815260046020526040902054909550611da690829061162f565b611cd1565b611de082633b9aca006110db611dc18983614e87565b600086815260046020526040902060028101549054610a3c9190612ad5565b9150611dec818661162f565b60009450611cd1565b82821115610a8d5760405162461bcd60e51b815260040161092090614ec0565b60009081526004602081905260409091200154600160a01b90046001600160401b0316151590565b6000546001600160a01b03163314611e975760405162461bcd60e51b815260206004820181905260248201527f52657374726963746564206f6e6c7920746f20486f7264436f6e67726573732e6044820152606401610920565b6113f06132d3565b611ea76129cc565b611eb0816113f2565b611b975760405162461bcd60e51b815260206004820152601a60248201527f52657665727420696e2063616e63656c2066756e6374696f6e2e0000000000006044820152606401610920565b7ff0c57e16840df040f15088dc2f81fe391c3923bec73e23a9662efc9c229c6a008054600160401b810460ff1615906001600160401b0316600081158015611f415750825b90506000826001600160401b03166001148015611f5d5750303b155b905081158015611f6b575080155b15611f895760405163f92ee8a960e01b815260040160405180910390fd5b845467ffffffffffffffff191660011785558315611fb357845460ff60401b1916600160401b1785555b6001600160a01b0388166120155760405162461bcd60e51b815260206004820152602360248201527f48506f6f6c4d616e616765722063616e206e6f7420626520307830206164647260448201526265737360e81b6064820152608401610920565b6001600160a01b0387166120775760405162461bcd60e51b815260206004820152602360248201527f56506f6f6c4d616e616765722063616e206e6f7420626520307830206164647260448201526265737360e81b6064820152608401610920565b6001600160a01b0389166120e35760405162461bcd60e51b815260206004820152602d60248201527f4f72646572626f6f6b436f6e66696775726174696f6e2063616e206e6f74206260448201526c6520307830206164647265737360981b6064820152608401610920565b6120ed8b8b61331c565b6120f5613413565b600a80546001600160a01b03808c166001600160a01b03199283168117909355600780548c8316908416179055600880548b831690841617905560098054918a169190921617905560408051637238c91560e01b81529051637238c915916004808201926020929091908290030181865afa158015612178573d6000803e3d6000fd5b505050506040513d601f19601f8201168201806040525081019061219c919061503e565b600b80546001600160a01b0319166001600160a01b03928316179055600a546040805163cf71efa960e01b81529051919092169163cf71efa99160048083019260209291908290030181865afa1580156121fa573d6000803e3d6000fd5b505050506040513d601f19601f8201168201806040525081019061221e91906150f2565b6012819055600b5461223b916001600160a01b0390911690613423565b831561228157845460ff60401b19168555604051600181527fc7f505b2f371ae2175ee4913f4499e1f2633a7b5936321eed1cdaeb6115181d29060200160405180910390a15b5050505050505050505050565b6000818152600c60205260408120541515806122ba57506000828152600c602052604090206001015415155b806108ed575050600081815260046020908152604080832060018101546001600160a01b039081168552600d84528285206003909201541684529091529020541490565b60006123086129cc565b8261231281611e15565b61232e5760405162461bcd60e51b81526004016109209061505b565b60035460ff16156123515760405162461bcd60e51b815260040161092090614e16565b61235b848461347b565b949350505050565b6007546040516374bd918d60e01b81523360048201526001600160a01b03909116906374bd918d90602401602060405180830381865afa1580156123ab573d6000803e3d6000fd5b505050506040513d601f19601f820116820180604052508101906123cf9190614f06565b6124255760405162461bcd60e51b815260206004820152602160248201527f4d73672e73656e646572206973206e6f742048506f6f6c20636f6e74726163746044820152601760f91b6064820152608401610920565b600a54604051631cc2c84160e21b8152600481018490526000916001600160a01b03169063730b210490602401602060405180830381865afa15801561246f573d6000803e3d6000fd5b505050506040513d601f19601f8201168201806040525081019061249391906150f2565b600a54604051638f96876f60e01b8152600481018690529192506000916001600160a01b0390911690638f96876f90602401602060405180830381865afa1580156124e2573d6000803e3d6000fd5b505050506040513d601f19601f8201168201806040525081019061250691906150f2565b6001600160a01b03841660009081526005602052604081206001018054929350849290919061253690849061510b565b90915550506001600160a01b0383166000908152600560205260408120805484929061256390849061510b565b90915550506001600160a01b0383166000908152600660205260408120600101805483929061259390849061510b565b90915550506001600160a01b038316600090815260066020526040812080548392906125c090849061510b565b909155505050505050565b60006125d56129cc565b6007546040516374bd918d60e01b81526001600160a01b038089166004830152889287929116906374bd918d90602401602060405180830381865afa158015612622573d6000803e3d6000fd5b505050506040513d601f19601f820116820180604052508101906126469190614f06565b801561265f5750600b546001600160a01b038281169116145b806126ec57506007546040516374bd918d60e01b81526001600160a01b038381166004830152909116906374bd918d90602401602060405180830381865afa1580156126af573d6000803e3d6000fd5b505050506040513d601f19601f820116820180604052508101906126d39190614f06565b80156126ec5750600b546001600160a01b038381169116145b80612779575060085460405163a0e884d360e01b81526001600160a01b0384811660048301529091169063a0e884d390602401602060405180830381865afa15801561273c573d6000803e3d6000fd5b505050506040513d601f19601f820116820180604052508101906127609190614f06565b80156127795750600b546001600160a01b038281169116145b80612806575060085460405163a0e884d360e01b81526001600160a01b0383811660048301529091169063a0e884d390602401602060405180830381865afa1580156127c9573d6000803e3d6000fd5b505050506040513d601f19601f820116820180604052508101906127ed9190614f06565b80156128065750600b546001600160a01b038381169116145b61284b5760405162461bcd60e51b81526020600482015260166024820152752a3432903830b4b91034b9903737ba103b30b634b21760511b6044820152606401610920565b60035460ff161561286e5760405162461bcd60e51b815260040161092090614e16565b6001600160a01b0388166000908152600f60205260409020548910156128fc5760405162461bcd60e51b815260206004820152603b60248201527f54686520616d6f756e74206f6620746f6b656e7320666f722073616c6520697360448201527f206c657373207468616e20746865206c6f776572206c696d69742e00000000006064820152608401610920565b61290a898989898989613578565b9998505050505050505050565b60008061292484866108c6565b90505b6000818152600460205260409020548311156129b65760008181526004602052604090206002015461295a908390612a2a565b600082815260046020526040902054909250612977908490612a7f565b925082156129b1576000908152600c6020526040812060010154908190036129b15760405162461bcd60e51b815260040161092090614e42565b612927565b6110ea82633b9aca006110db611dc18783614e87565b6000805160206151d68339815191525460ff16156113f05760405163d93c066560e01b815260040160405180910390fd5b600081612a20612a1585670de0b6b3a76400006136e9565b6110e5600286614e9e565b6116289190614e9e565b600082612a37838261510b565b91508110156108ed5760405162461bcd60e51b815260206004820152601460248201527364732d6d6174682d6164642d6f766572666c6f7760601b6044820152606401610920565b600082612a8c838261511e565b91508111156108ed5760405162461bcd60e51b815260206004820152601560248201527464732d6d6174682d7375622d756e646572666c6f7760581b6044820152606401610920565b600081612a20612a15856b033b2e3c9fd0803ce80000006136e9565b60006b033b2e3c9fd0803ce8000000612a20612b0d85856136e9565b6110e560026b033b2e3c9fd0803ce8000000614e9e565b6000805160206151f6833981519152805460011901612b5657604051633ee5aeb560e01b815260040160405180910390fd5b60029055565b60016000805160206151f683398151915255565b612b78613750565b6000805160206151d6833981519152805460ff191681557f5db9ee0a495bf2e6ff9c91a7834c1ba4fdd244a5e8aa4e537bd38aeae4b073aa335b6040516001600160a01b03909116815260200160405180910390a150565b600081815260046020908152604080832060038101546001909101546001600160a01b03908116808652600e855283862091909216808652935290832054612c695760405162461bcd60e51b815260206004820152602660248201527f5468657265206973206e6f206f6666657220666f72207468697320746f6b656e604482015265103830b4b91760d11b6064820152608401610920565b6000848152600c6020526040902060020154158015612c8c5750612c8c8461228e565b612cd85760405162461bcd60e51b815260206004820152601d60248201527f4964206973206e6f7420696e2074686520736f72746564206c6973742e0000006044820152606401610920565b6001600160a01b038082166000908152600d60209081526040808320938616835292905220548414612d88576000848152600c60205260408082205482529020600101548414612d645760405162461bcd60e51b815260206004820152601760248201527624b21034b9903737ba1037b7103b30b634b2103837b99760491b6044820152606401610920565b6000848152600c602052604080822060018082015491548452919092200155612dbe565b6000848152600c60209081526040808320600101546001600160a01b038086168552600d84528285209087168552909252909120555b6000848152600c602052604090206001015415612e52576000848152600c60205260408082206001015482529020548414612e355760405162461bcd60e51b815260206004820152601760248201527624b21034b9903737ba1037b7103b30b634b2103837b99760491b6044820152606401610920565b6000848152600c6020526040808220805460019091015483529120555b6001600160a01b038082166000908152600e602090815260408083209386168352929052908120805491612e8583615131565b90915550505060009283525050600c6020526040902043600290910155600190565b60115460009080612eb78461228e565b15612f0e5760405162461bcd60e51b815260206004820152602160248201527f4f72646572496420697320696e20736f72746564206f6666657273206c6973746044820152601760f91b6064820152608401610920565b8360115403612f33575050506000908152601060205260408120805460115555600190565b5b600082118015612f445750838214155b15612f5f575060008181526010602052604090205490612f34565b838214612f70575060009392505050565b60008481526010602052604080822080549383529082209290925593845292909255506001919050565b600081612fa681611e15565b612fc25760405162461bcd60e51b81526004016109209061505b565b600081815260046020819052604090912001546001600160a01b0316331461302c5760405162461bcd60e51b815260206004820152601c60248201527f4f6e6c79206f776e65722063616e2063616e63656c206f666665722e000000006044820152606401610920565b60035460ff161561304f5760405162461bcd60e51b815260040161092090615148565b6001600360006101000a81548160ff0219169083151502179055506000600460008581526020019081526020016000206040518060c0016040529081600082015481526020016001820160009054906101000a90046001600160a01b03166001600160a01b03166001600160a01b03168152602001600282015481526020016003820160009054906101000a90046001600160a01b03166001600160a01b03166001600160a01b031681526020016004820160009054906101000a90046001600160a01b03166001600160a01b03166001600160a01b031681526020016004820160149054906101000a90046001600160401b03166001600160401b03166001600160401b0316815250509050600460008581526020019081526020016000206000808201600090556001820160006101000a8154906001600160a01b03021916905560028201600090556003820160006101000a8154906001600160a01b0302191690556004820160006101000a8154906001600160a01b0302191690556004820160146101000a8154906001600160401b0302191690555050613201816020015182608001518360000151613780565b6040518481527fa2c251311b1a7a475913900a2a73dc9789a21b04bc737e050bbc506dd4eb34889060200160405180910390a180608001516001600160a01b03168160200151826060015160405160200161325d929190615089565b60408051601f19818403018152828252805160209182012090850151606086015186519387015192948a947f9577941d28fff863bfbee4694a6a4a56fb09e169619189d2eaa750b5b4819995946132b794939242906150b0565b60405180910390a450506003805460ff19169055506001919050565b6132db6129cc565b6000805160206151d6833981519152805460ff191660011781557f62e78cea01bee320cd4e420270b5ea74000d11b0c9f74754ebdbfc544b05a25833612bb2565b6001600160a01b03821661337d5760405162461bcd60e51b815260206004820152602260248201527f486f726420636f6e67726573732063616e277420626520307830206164647265604482015261737360f01b6064820152608401610920565b6001600160a01b0381166133e55760405162461bcd60e51b815260206004820152602960248201527f4d61696e7461696e6572732072656773697472792063616e277420626520307860448201526830206164647265737360b81b6064820152608401610920565b600080546001600160a01b039384166001600160a01b03199182161790915560018054929093169116179055565b61341b6137e8565b6113f0613831565b6001600160a01b0382166000818152600f6020908152604091829020849055815192835282018390527fc28d56449b0bb31e64ee7487e061f57a2e72aea8019d810832f26dda099823d0910160405180910390a15050565b60008281526004602052604081205482036134b8576134998361228e565b156134ad576134a783612bd0565b506134b8565b6134b683612ea7565b505b6134c28383613839565b61351c5760405162461bcd60e51b815260206004820152602560248201527f52657665727420696e206275795f73696d706c655f6d61726b65742066756e636044820152643a34b7b71760d91b6064820152608401610920565b61352583611e15565b801561355f5750600083815260046020818152604080842060018101546001600160a01b03168552600f8352908420549387905291905254105b1561356f5761356d836113f2565b505b50600192915050565b60008060008060005b6001600160a01b038089166000908152600d60209081526040808320938e16835292905220541561368a5750506001600160a01b038087166000908152600d60209081526040808320938c1683529281528282205480835260049091529190206002810154905491935090856135f8576000613618565b808b6136048b8561510b565b61360e919061510b565b613618919061510b565b6136228c836136e9565b61362c919061510b565b613636838b6136e9565b1161368a5761364984610875838c614137565b508892506136608961365b838c614137565b612a7f565b98508261366d8a8d6136e9565b6136779190614e9e565b9a508a1580613684575088155b15613581575b60008911801561369a575060008b115b80156136be57506001600160a01b038a166000908152600f60205260409020548b10155b156136db576136cf8b8b8b8b61414e565b94506136db8588614557565b505050509695505050505050565b600081158061370d575082826136ff8183614e87565b925061370b9083614e9e565b145b6108ed5760405162461bcd60e51b815260206004820152601460248201527364732d6d6174682d6d756c2d6f766572666c6f7760601b6044820152606401610920565b6000805160206151d68339815191525460ff166113f057604051638dfc202b60e01b815260040160405180910390fd5b6040516001600160a01b0383166024820152604481018290526137e390849063a9059cbb60e01b906064015b60408051601f198184030181529190526020810180516001600160e01b03166001600160e01b03199093169290921790915261473b565b505050565b7ff0c57e16840df040f15088dc2f81fe391c3923bec73e23a9662efc9c229c6a0054600160401b900460ff166113f057604051631afcd79f60e31b815260040160405180910390fd5b612b5c6137e8565b60008261384581611e15565b6138615760405162461bcd60e51b81526004016109209061505b565b60035460ff16156138845760405162461bcd60e51b815260040161092090615148565b6003805460ff1916600190811782556000868152600460208181526040808420815160c0810183528154808252968201546001600160a01b0390811694820194909452600282015492810183905296810154831660608801529092015490811660808601526001600160401b03600160a01b9091041660a085015290919061390d9087906136e9565b6139179190614e9e565b905080816001600160801b0316146139415760405162461bcd60e51b815260040161092090615168565b84856001600160801b0316146139695760405162461bcd60e51b815260040161092090615168565b841580613974575080155b8061397f5750815185115b8061398d5750816040015181115b1561399d57600093505050614126565b81516139a99086612a7f565b60008781526004602052604090819020919091558201516139ca9082612a7f565b600087815260046020526040902060020155600b5460608301516001600160a01b03918216911603613cb057600a54604051633a51198d60e01b8152600481018390526000916001600160a01b031690633a51198d90602401602060405180830381865afa158015613a40573d6000803e3d6000fd5b505050506040513d601f19601f82011682018060405250810190613a6491906150f2565b600a54604051631cc2c84160e21b8152600481018390529192506000916001600160a01b039091169063730b210490602401602060405180830381865afa158015613ab3573d6000803e3d6000fd5b505050506040513d601f19601f82011682018060405250810190613ad791906150f2565b600a54604051638f96876f60e01b8152600481018590529192506000916001600160a01b0390911690638f96876f90602401602060405180830381865afa158015613b26573d6000803e3d6000fd5b505050506040513d601f19601f82011682018060405250810190613b4a91906150f2565b90506000613b58848661511e565b9050816006600088602001516001600160a01b03166001600160a01b031681526020019081526020016000206003016000828254613b96919061510b565b90915550506020808701516001600160a01b031660009081526006909152604081206002018054849290613bcb90849061510b565b90915550506020808701516001600160a01b031660009081526005909152604081206003018054859290613c0090849061510b565b90915550506020808701516001600160a01b031660009081526005909152604081206002018054859290613c3590849061510b565b90915550506060860151613c4b9033308761489f565b613c5f86606001513388608001518461489f565b613c6e8660200151338b613780565b60408051848152602081018490527fc78d6d743d0f17eec0da7d6fc64848fea372db4adc0201687fb1c2ce8395dc71910160405180910390a150505050613f64565b600b5460208301516001600160a01b03918216911603613f6457600a54604051633a51198d60e01b8152600481018790526000916001600160a01b031690633a51198d90602401602060405180830381865afa158015613d14573d6000803e3d6000fd5b505050506040513d601f19601f82011682018060405250810190613d3891906150f2565b600a54604051631cc2c84160e21b8152600481018390529192506000916001600160a01b039091169063730b210490602401602060405180830381865afa158015613d87573d6000803e3d6000fd5b505050506040513d601f19601f82011682018060405250810190613dab91906150f2565b600a54604051638f96876f60e01b8152600481018590529192506000916001600160a01b0390911690638f96876f90602401602060405180830381865afa158015613dfa573d6000803e3d6000fd5b505050506040513d601f19601f82011682018060405250810190613e1e91906150f2565b90506000613e2c848a61511e565b60608701516001600160a01b0316600090815260066020526040812060030180549293508492909190613e6090849061510b565b909155505060608601516001600160a01b031660009081526006602052604081206002018054849290613e9490849061510b565b909155505060608601516001600160a01b031660009081526005602052604081206003018054859290613ec890849061510b565b909155505060608601516001600160a01b031660009081526005602052604081206002018054859290613efc90849061510b565b92505081905550613f1786606001513388608001518861489f565b613f2686602001513383613780565b60408051848152602081018490527fc78d6d743d0f17eec0da7d6fc64848fea372db4adc0201687fb1c2ce8395dc71910160405180910390a1505050505b6040518681527fa2c251311b1a7a475913900a2a73dc9789a21b04bc737e050bbc506dd4eb34889060200160405180910390a1336001600160a01b031682608001516001600160a01b031683602001518460600151604051602001613fca929190615089565b60408051601f198184030181528282528051602091820120878201516060808a01518e87526001600160a01b03928316948701949094529216928401929092526001600160801b03808b1691840191909152851660808301526001600160401b03421660a0830152907f3383e3357c77fd2e3a4b30deea81179bc70a795d053d14d5b7f2f01d0fd4596f9060c00160405180910390a481606001516001600160a01b031682602001516001600160a01b03167f819e390338feffe95e2de57172d6faf337853dfd15c7a09a32d76f7fd244387587846040516140b6929190918252602082015260400190565b60405180910390a3600086815260046020526040812054900361411f57600086815260046020819052604082208281556001810180546001600160a01b031990811690915560028201939093556003810180549093169092550180546001600160e01b03191690555b6001935050505b506003805460ff1916905592915050565b6000818311156141475781611628565b5090919050565b60035460009060ff16156141745760405162461bcd60e51b815260040161092090615148565b6003805460ff191660011790556001600160801b03851685146141a95760405162461bcd60e51b815260040161092090615168565b82836001600160801b0316146141d15760405162461bcd60e51b815260040161092090615168565b6000851161422c5760405162461bcd60e51b815260206004820152602260248201527f50617920616d6f756e74206d7573742062652067726561746572207468616e20604482015261181760f11b6064820152608401610920565b6001600160a01b03841661428c5760405162461bcd60e51b815260206004820152602160248201527f50617920746f6b656e2063616e206e6f742062652030783020616464726573736044820152601760f91b6064820152608401610920565b600083116142e75760405162461bcd60e51b815260206004820152602260248201527f42757920616d70756e74206d7573742062652067726561746572207468616e20604482015261181760f11b6064820152608401610920565b6001600160a01b0382166143475760405162461bcd60e51b815260206004820152602160248201527f42757920746f6b656e2063616e206e6f742062652030783020616464726573736044820152601760f91b6064820152608401610920565b816001600160a01b0316846001600160a01b0316036143bc5760405162461bcd60e51b815260206004820152602b60248201527f50617920746f6b656e206d75737420626520646966666572656e74207468616e60448201526a10313abc903a37b5b2b71760a91b6064820152608401610920565b6040805160c0810182528681526001600160a01b0386811660208301529181018590529083166060820152336080820152426001600160401b031660a08201526144046148dd565b60008181526004602081815260409283902085518155908501516001820180546001600160a01b039283166001600160a01b0319918216179091559386015160028301556060860151600383018054918316919095161790935560808501519101805460a08601516001600160401b0316600160a01b026001600160e01b0319909116929093169190911791909117905591506144a38533308961489f565b6040518281527fa2c251311b1a7a475913900a2a73dc9789a21b04bc737e050bbc506dd4eb34889060200160405180910390a160405133906144eb9087908690602001615089565b604051602081830303815290604052805190602001208360001b7f773ff502687307abfa024ac9f62f9752a0d210dac2ffd9a29e38e12e2ea82c8288878b8a4260405161453c9594939291906150b0565b60405180910390a4506003805460ff19169055949350505050565b61456082611e15565b6145a35760405162461bcd60e51b815260206004820152601460248201527337b33332b91034b9903737ba1030b1ba34bb329760611b6044820152606401610920565b600082815260046020526040812060038101546001909101546001600160a01b03918216929116908315806145f557506000848152600460205260409020600101546001600160a01b03838116911614155b8061461d57506000848152600460205260409020600301546001600160a01b03848116911614155b8061462e575061462c8461228e565b155b6146415761463c85856148fb565b61464a565b61464a85614a13565b9350831561467857506000838152600c602052604080822060010180549087905586835291208490556146a5565b506001600160a01b038181166000908152600d602090815260408083209386168352929052208054908590555b80156146c9576000818152600c602052604080822087905586825290206001018190555b6001600160a01b038083166000908152600e6020908152604080832093871683529290529081208054916146fc8361518d565b90915550506040518581527f20fb9bad86c18f7e22e8065258790d9416a7d2df8ff05f80f82c46d38b925acd9060200160405180910390a15050505050565b813b8061477b5760405162461bcd60e51b815260206004820152600e60248201526d139bdd08184818dbdb9d1c9858dd60921b6044820152606401610920565b600080846001600160a01b03168460405161479691906151a6565b6000604051808303816000865af19150503d80600081146147d3576040519150601f19603f3d011682016040523d82523d6000602084013e6147d8565b606091505b50915091508161481e5760405162461bcd60e51b8152602060048201526011602482015270151bdad95b8818d85b1b0819985a5b1959607a1b6044820152606401610920565b80511561489857808060200190518101906148399190614f06565b6148985760405162461bcd60e51b815260206004820152602a60248201527f5361666545524332303a204552433230206f7065726174696f6e20646964206e6044820152691bdd081cdd58d8d9595960b21b6064820152608401610920565b5050505050565b6040516001600160a01b03808516602483015283166044820152606481018290526148d79085906323b872dd60e01b906084016137ac565b50505050565b60028054600091826148ee8361518d565b9190505550600254905090565b600080831161494c5760405162461bcd60e51b815260206004820152601a60248201527f6964206d7573742062652067726561746572207468616e20302e0000000000006044820152606401610920565b8115801590614961575061495f82611e15565b155b1561497f576000918252600c6020526040909120600101549061494c565b816000036149975761499083614a13565b90506108ed565b6149a18383614ada565b156149db5760005b82158015906149bd57506149bd8484614ada565b1561499057506000828152600c6020526040902060010154916149a9565b81158015906149f157506149ef8383614ada565b155b15614a0c576000918252600c602052604090912054906149db565b50806108ed565b6000808211614a645760405162461bcd60e51b815260206004820152601a60248201527f6964206d7573742062652067726561746572207468616e20302e0000000000006044820152606401610920565b600082815260046020908152604080832060038101546001909101546001600160a01b03908116808652600d85528386209190921680865293529083205491929091905b8115801590614abc5750614abc8683614ada565b156110ea57506000818152600c602052604090206001015490614aa8565b6000828152600460205260408082205483835290822060020154614afe9190614e87565b60008381526004602052604080822054868352912060020154614b219190614e87565b10159392505050565b6001600160a01b0381168114611b9757600080fd5b60008060408385031215614b5257600080fd5b8235614b5d81614b2a565b91506020830135614b6d81614b2a565b809150509250929050565b60008060008060808587031215614b8e57600080fd5b8435614b9981614b2a565b9350602085013592506040850135614bb081614b2a565b9396929550929360600135925050565b600060208284031215614bd257600080fd5b813561162881614b2a565b60008060408385031215614bf057600080fd5b8235614bfb81614b2a565b946020939093013593505050565b600080600060608486031215614c1e57600080fd5b8335614c2981614b2a565b92506020840135614c3981614b2a565b929592945050506040919091013590565b600080600080600060a08688031215614c6257600080fd5b853594506020860135614c7481614b2a565b9350604086013592506060860135614c8b81614b2a565b949793965091946080013592915050565b600060208284031215614cae57600080fd5b5035919050565b60008060408385031215614cc857600080fd5b8235915060208301356001600160801b0381168114614b6d57600080fd5b60008060008060008060c08789031215614cff57600080fd5b8635614d0a81614b2a565b95506020870135614d1a81614b2a565b94506040870135614d2a81614b2a565b93506060870135614d3a81614b2a565b92506080870135614d4a81614b2a565b915060a0870135614d5a81614b2a565b809150509295509295509295565b60008060408385031215614d7b57600080fd5b50508035926020909101359150565b60008060408385031215614d9d57600080fd5b823591506020830135614b6d81614b2a565b8015158114611b9757600080fd5b60008060008060008060c08789031215614dd657600080fd5b863595506020870135614de881614b2a565b9450604087013593506060870135614dff81614b2a565b92506080870135915060a0870135614d5a81614daf565b6020808252601290820152711499595b9d1c985b98de48185d1d195b5c1d60721b604082015260600190565b60208082526015908201527437b33332b924b21031b0b7103737ba10313290181760591b604082015260600190565b634e487b7160e01b600052601160045260246000fd5b80820281158282048414176108ed576108ed614e71565b600082614ebb57634e487b7160e01b600052601260045260246000fd5b500490565b60208082526026908201527f66696c6c5f616d74206973206c657373207468616e206d696e5f66696c6c5f6160408201526536b7bab73a1760d11b606082015260800190565b600060208284031215614f1857600080fd5b815161162881614daf565b6000806000806000806000806000806000806101808d8f031215614f4657600080fd5b8c519b5060208d01519a5060408d0151614f5f81614b2a565b809a505060608d0151985060808d0151975060a08d0151614f7f81614daf565b60c08e015160e08f01519198509650614f9781614b2a565b809550506101008d015193506101208d015192506101408d015191506101608d015190509295989b509295989b509295989b565b600080600080600080600080610100898b031215614fe857600080fd5b885197506020890151614ffa81614b2a565b60408a015190975061500b81614b2a565b60608a015160808b015160a08c015160c08d015160e0909d01519b9e9a9d50929b919a9099929850909650945092505050565b60006020828403121561505057600080fd5b815161162881614b2a565b60208082526014908201527327b33332b91034b9903737ba1030b1ba34bb329760611b604082015260600190565b6bffffffffffffffffffffffff19606093841b811682529190921b16601482015260280190565b6001600160a01b0395861681529390941660208401526001600160801b0391821660408401521660608201526001600160401b03909116608082015260a00190565b60006020828403121561510457600080fd5b5051919050565b808201808211156108ed576108ed614e71565b818103818111156108ed576108ed614e71565b60008161514057615140614e71565b506000190190565b602080825260069082015265131bd8dad95960d21b604082015260600190565b6020808252600b908201526a21b0b9ba1032b93937b91760a91b604082015260600190565b60006001820161519f5761519f614e71565b5060010190565b6000825160005b818110156151c757602081860181015185830152016151ad565b50600092019182525091905056fecd5ed15c6e187e77e9aee88184c21f4f2182ab5827cb3b7e07fbedcd63f033009b779b17422d0df92223018b32b4d1fa46e071723d6817e2486d003becc55f00a264697066735822122044ae055e89e47ccabfb9bd7dd55375678b4e2e45fbdfd6401589c1a433ff5d6a64736f6c63430008170033",
    "linkReferences": {}
  },
  "methodIdentifiers": {
    "_best(address,address)": "74c1d7d3",
    "_dust(address)": "91be90c8",
    "_head()": "899111b7",
    "_near(uint256)": "a78d4316",
    "_rank(uint256)": "c2d526aa",
    "_span(address,address)": "677170e1",
    "addTransferFee(uint256,address)": "f3937080",
    "bump(bytes32)": "779997c3",
    "buy(uint256,uint256)": "d6febde8",
    "buyAllAmount(address,uint256,address,uint256)": "8185402b",
    "cancel(uint256)": "40e58ee5",
    "dustLimit()": "cf71efa9",
    "dustToken()": "7238c915",
    "getBestOffer(address,address)": "0374fc6f",
    "getBetterOffer(uint256)": "911550f4",
    "getBuyAmount(address,address,uint256)": "144a2752",
    "getFirstUnsortedOffer()": "8af82a2e",
    "getMinSell(address)": "511fa487",
    "getNextUnsortedOffer(uint256)": "61f54a79",
    "getOffer(uint256)": "4579268a",
    "getOfferCount(address,address)": "7ca9429a",
    "getOwner(uint256)": "c41a360a",
    "getPayAmount(address,address,uint256)": "ff1fd974",
    "getWorseOffer(uint256)": "943911bc",
    "hPoolManager()": "a28ff2d0",
    "hordCongress()": "6a8f414f",
    "hordTreasury()": "dd2db87f",
    "initialize(address,address,address,address,address,address)": "cc2a9a5b",
    "isActive(uint256)": "82afd23b",
    "isOfferSorted(uint256)": "d2b420ce",
    "kill(bytes32)": "b4f9b6c8",
    "last_offer_id()": "232cae0b",
    "locked()": "cf309012",
    "maintainersRegistry()": "d2e69e47",
    "offer(uint256,address,uint256,address,uint256)": "1b33d412",
    "offerWithRounding(uint256,address,uint256,address,uint256,bool)": "f6b5b4b2",
    "offers(uint256)": "8a72ea6a",
    "orderbookConfiguration()": "9eb13134",
    "pause()": "8456cb59",
    "paused()": "5c975abb",
    "poolToChampionFee(address)": "10814647",
    "poolToPlatformFee(address)": "4699b006",
    "sellAllAmount(address,uint256,address,uint256)": "0621b4f6",
    "take(bytes32,uint128)": "49606455",
    "unpause()": "3f4ba83a",
    "vPoolManager()": "37e0376b",
    "withdrawChampionTradingAndTransferFee(address,uint256)": "142b9ea1",
    "withdrawProtocolFee(address)": "668fb6dc"
  },
  "id": 23
}