{
  "abi": [
    {
      "inputs": [],
      "name": "InvalidInitialization",
      "type": "error"
    },
    {
      "inputs": [],
      "name": "NotInitializing",
      "type": "error"
    },
    {
      "anonymous": false,
      "inputs": [
        {
          "indexed": false,
          "internalType": "uint64",
          "name": "version",
          "type": "uint64"
        }
      ],
      "name": "Initialized",
      "type": "event"
    },
    {
      "anonymous": false,
      "inputs": [
        {
          "indexed": false,
          "internalType": "address",
          "name": "maintainer",
          "type": "address"
        },
        {
          "indexed": false,
          "internalType": "bool",
          "name": "isMember",
          "type": "bool"
        }
      ],
      "name": "MaintainerStatusChanged",
      "type": "event"
    },
    {
      "inputs": [
        {
          "internalType": "address",
          "name": "_address",
          "type": "address"
        }
      ],
      "name": "addMaintainer",
      "outputs": [],
      "stateMutability": "nonpayable",
      "type": "function"
    },
    {
      "inputs": [
        {
          "internalType": "uint256",
          "name": "",
          "type": "uint256"
        }
      ],
      "name": "allMaintainers",
      "outputs": [
        {
          "internalType": "address",
          "name": "",
          "type": "address"
        }
      ],
      "stateMutability": "view",
      "type": "function"
    },
    {
      "inputs": [],
      "name": "hordCongress",
      "outputs": [
        {
          "internalType": "address",
          "name": "",
          "type": "address"
        }
      ],
      "stateMutability": "view",
      "type": "function"
    },
    {
      "inputs": [
        {
          "internalType": "address[]",
          "name": "_maintainers",
          "type": "address[]"
        },
        {
          "internalType": "address",
          "name": "_hordCongress",
          "type": "address"
        }
      ],
      "name": "initialize",
      "outputs": [],
      "stateMutability": "nonpayable",
      "type": "function"
    },
    {
      "inputs": [
        {
          "internalType": "address",
          "name": "_address",
          "type": "address"
        }
      ],
      "name": "isMaintainer",
      "outputs": [
        {
          "internalType": "bool",
          "name": "",
          "type": "bool"
        }
      ],
      "stateMutability": "view",
      "type": "function"
    },
    {
      "inputs": [
        {
          "internalType": "address",
          "name": "_maintainer",
          "type": "address"
        }
      ],
      "name": "removeMaintainer",
      "outputs": [],
      "stateMutability": "nonpayable",
      "type": "function"
    }
  ],
  "bytecode": {
    "object": "0x608060405234801561001057600080fd5b506107ef806100206000396000f3fe608060405234801561001057600080fd5b50600436106100625760003560e01c806331c27fcb14610067578063462d0b2e146100975780636a8f414f146100ac5780636b453c1f146100bf578063d8baf7cf146100d2578063dd57366a146100e5575b600080fd5b61007a610075366004610601565b610121565b6040516001600160a01b0390911681526020015b60405180910390f35b6100aa6100a536600461064c565b61014b565b005b60025461007a906001600160a01b031681565b6100aa6100cd366004610723565b6102a5565b6100aa6100e0366004610723565b610336565b6101116100f3366004610723565b6001600160a01b031660009081526020819052604090205460ff1690565b604051901515815260200161008e565b6001818154811061013157600080fd5b6000918252602090912001546001600160a01b0316905081565b7ff0c57e16840df040f15088dc2f81fe391c3923bec73e23a9662efc9c229c6a008054600160401b810460ff16159067ffffffffffffffff166000811580156101915750825b905060008267ffffffffffffffff1660011480156101ae5750303b155b9050811580156101bc575080155b156101da5760405163f92ee8a960e01b815260040160405180910390fd5b845467ffffffffffffffff19166001178555831561020457845460ff60401b1916600160401b1785555b600280546001600160a01b0319166001600160a01b03881617905560005b87518110156102555761024d88828151811061024057610240610745565b6020026020010151610541565b600101610222565b50831561029c57845460ff60401b19168555604051600181527fc7f505b2f371ae2175ee4913f4499e1f2633a7b5936321eed1cdaeb6115181d29060200160405180910390a15b50505050505050565b6002546001600160a01b0316331461032a5760405162461bcd60e51b815260206004820152603760248201527f4d61696e7461696e6572735265676973747279203a3a204f6e6c7920636f6e6760448201527f726573732063616e20616464206d61696e7461696e657200000000000000000060648201526084015b60405180910390fd5b61033381610541565b50565b6002546001600160a01b031633146103b65760405162461bcd60e51b815260206004820152603a60248201527f4d61696e7461696e6572735265676973747279203a3a204f6e6c7920636f6e6760448201527f726573732063616e2072656d6f7665206d61696e7461696e65720000000000006064820152608401610321565b6001600160a01b03811660009081526020819052604090205460ff1615156001146103e057600080fd5b60015460005b826001600160a01b03166001828154811061040357610403610745565b6000918252602090912001546001600160a01b03161461043b5781810361042957600080fd5b8061043381610771565b9150506103e6565b6001610447818461078a565b8154811061045757610457610745565b600091825260209091200154600180546001600160a01b03909216918390811061048357610483610745565b9060005260206000200160006101000a8154816001600160a01b0302191690836001600160a01b0316021790555060018054806104c2576104c26107a3565b60008281526020808220600019908401810180546001600160a01b03191690559092019092556001600160a01b0385168083528282526040808420805460ff191690558051918252918101929092527f72bebc015e2ecb47271b0aa2675b168fc30b22ffa40f4c028708cbce21eec6b1910160405180910390a1505050565b6001600160a01b03811660009081526020819052604090205460ff161561056757600080fd5b6001805480820182557fb10e2d527612073b26eecdfd717e6a320cf44b4afac2b0732d9fcbe2b7fa0cf60180546001600160a01b0319166001600160a01b03841690811790915560008181526020818152604091829020805460ff19168517905581519283528201929092527f72bebc015e2ecb47271b0aa2675b168fc30b22ffa40f4c028708cbce21eec6b1910160405180910390a150565b60006020828403121561061357600080fd5b5035919050565b634e487b7160e01b600052604160045260246000fd5b80356001600160a01b038116811461064757600080fd5b919050565b6000806040838503121561065f57600080fd5b823567ffffffffffffffff8082111561067757600080fd5b818501915085601f83011261068b57600080fd5b813560208282111561069f5761069f61061a565b8160051b604051601f19603f830116810181811086821117156106c4576106c461061a565b6040529283528183019350848101820192898411156106e257600080fd5b948201945b83861015610707576106f886610630565b855294820194938201936106e7565b96506107169050878201610630565b9450505050509250929050565b60006020828403121561073557600080fd5b61073e82610630565b9392505050565b634e487b7160e01b600052603260045260246000fd5b634e487b7160e01b600052601160045260246000fd5b6000600182016107835761078361075b565b5060010190565b8181038181111561079d5761079d61075b565b92915050565b634e487b7160e01b600052603160045260246000fdfea26469706673582212208afb09992f835392f66abe72c9236a89eaf196665b1eb41cc397c4fba46ab67764736f6c63430008170033",
    "linkReferences": {}
  },
  "methodIdentifiers": {
    "addMaintainer(address)": "6b453c1f",
    "allMaintainers(uint256)": "31c27fcb",
    "hordCongress()": "6a8f414f",
    "initialize(address[],address)": "462d0b2e",
    "isMaintainer(address)": "dd57366a",
    "removeMaintainer(address)": "d8baf7cf"
  },
  "id": 41
}