{
  "abi": [
    {
      "inputs": [],
      "name": "InvalidInitialization",
      "type": "error"
    },
    {
      "inputs": [],
      "name": "NotInitializing",
      "type": "error"
    },
    {
      "anonymous": false,
      "inputs": [
        {
          "indexed": false,
          "internalType": "string",
          "name": "parameter",
          "type": "string"
        },
        {
          "indexed": false,
          "internalType": "uint256",
          "name": "newValue",
          "type": "uint256"
        }
      ],
      "name": "ConfigurationChanged",
      "type": "event"
    },
    {
      "anonymous": false,
      "inputs": [
        {
          "indexed": false,
          "internalType": "string",
          "name": "parameter",
          "type": "string"
        },
        {
          "indexed": false,
          "internalType": "address",
          "name": "newValue",
          "type": "address"
        }
      ],
      "name": "DustTokenAddressChanged",
      "type": "event"
    },
    {
      "anonymous": false,
      "inputs": [
        {
          "indexed": false,
          "internalType": "string",
          "name": "parameter",
          "type": "string"
        },
        {
          "indexed": false,
          "internalType": "address",
          "name": "newValue",
          "type": "address"
        }
      ],
      "name": "HordTokenAddressChanged",
      "type": "event"
    },
    {
      "anonymous": false,
      "inputs": [
        {
          "indexed": false,
          "internalType": "uint64",
          "name": "version",
          "type": "uint64"
        }
      ],
      "name": "Initialized",
      "type": "event"
    },
    {
      "inputs": [
        {
          "internalType": "uint256",
          "name": "amount",
          "type": "uint256"
        }
      ],
      "name": "calculateChampionFee",
      "outputs": [
        {
          "internalType": "uint256",
          "name": "",
          "type": "uint256"
        }
      ],
      "stateMutability": "pure",
      "type": "function"
    },
    {
      "inputs": [
        {
          "internalType": "uint256",
          "name": "amount",
          "type": "uint256"
        }
      ],
      "name": "calculateOrderbookFee",
      "outputs": [
        {
          "internalType": "uint256",
          "name": "",
          "type": "uint256"
        }
      ],
      "stateMutability": "pure",
      "type": "function"
    },
    {
      "inputs": [
        {
          "internalType": "uint256",
          "name": "amount",
          "type": "uint256"
        }
      ],
      "name": "calculateTotalFee",
      "outputs": [
        {
          "internalType": "uint256",
          "name": "",
          "type": "uint256"
        }
      ],
      "stateMutability": "view",
      "type": "function"
    },
    {
      "inputs": [],
      "name": "dustLimit",
      "outputs": [
        {
          "internalType": "uint256",
          "name": "",
          "type": "uint256"
        }
      ],
      "stateMutability": "view",
      "type": "function"
    },
    {
      "inputs": [],
      "name": "dustToken",
      "outputs": [
        {
          "internalType": "address",
          "name": "",
          "type": "address"
        }
      ],
      "stateMutability": "view",
      "type": "function"
    },
    {
      "inputs": [],
      "name": "hordCongress",
      "outputs": [
        {
          "internalType": "address",
          "name": "",
          "type": "address"
        }
      ],
      "stateMutability": "view",
      "type": "function"
    },
    {
      "inputs": [],
      "name": "hordToken",
      "outputs": [
        {
          "internalType": "address",
          "name": "",
          "type": "address"
        }
      ],
      "stateMutability": "view",
      "type": "function"
    },
    {
      "inputs": [
        {
          "internalType": "address[]",
          "name": "addresses",
          "type": "address[]"
        },
        {
          "internalType": "uint256[]",
          "name": "configValues",
          "type": "uint256[]"
        }
      ],
      "name": "initialize",
      "outputs": [],
      "stateMutability": "nonpayable",
      "type": "function"
    },
    {
      "inputs": [],
      "name": "maintainersRegistry",
      "outputs": [
        {
          "internalType": "contract IMaintainersRegistry",
          "name": "",
          "type": "address"
        }
      ],
      "stateMutability": "view",
      "type": "function"
    },
    {
      "inputs": [],
      "name": "percentPrecision",
      "outputs": [
        {
          "internalType": "uint256",
          "name": "",
          "type": "uint256"
        }
      ],
      "stateMutability": "view",
      "type": "function"
    },
    {
      "inputs": [
        {
          "internalType": "uint256",
          "name": "_dustLimit",
          "type": "uint256"
        }
      ],
      "name": "setDustLimit",
      "outputs": [],
      "stateMutability": "nonpayable",
      "type": "function"
    },
    {
      "inputs": [
        {
          "internalType": "address",
          "name": "_dustToken",
          "type": "address"
        }
      ],
      "name": "setDustTokenAddress",
      "outputs": [],
      "stateMutability": "nonpayable",
      "type": "function"
    },
    {
      "inputs": [
        {
          "internalType": "address",
          "name": "_hordToken",
          "type": "address"
        }
      ],
      "name": "setHordTokenAddress",
      "outputs": [],
      "stateMutability": "nonpayable",
      "type": "function"
    },
    {
      "inputs": [
        {
          "internalType": "uint256",
          "name": "_percentPrecision",
          "type": "uint256"
        }
      ],
      "name": "setPercentPrecision",
      "outputs": [],
      "stateMutability": "nonpayable",
      "type": "function"
    },
    {
      "inputs": [
        {
          "internalType": "uint256",
          "name": "_totalFeePercent",
          "type": "uint256"
        }
      ],
      "name": "setTotalFeePercent",
      "outputs": [],
      "stateMutability": "nonpayable",
      "type": "function"
    },
    {
      "inputs": [],
      "name": "totalFeePercent",
      "outputs": [
        {
          "internalType": "uint256",
          "name": "",
          "type": "uint256"
        }
      ],
      "stateMutability": "view",
      "type": "function"
    }
  ],
  "bytecode": {
    "object": "0x608060405234801561001057600080fd5b50610c79806100206000396000f3fe608060405234801561001057600080fd5b50600436106101005760003560e01c80639867f1c111610097578063b994a7c511610066578063b994a7c514610216578063cf71efa91461021f578063d2e69e4714610228578063eaad63e91461023b57600080fd5b80639867f1c1146101ca5780639b1721c4146101dd5780639de03baa146101f0578063b120c9d91461020357600080fd5b80637238c915116100d35780637238c9151461017e578063730b2104146101915780637fbbe46f146101a45780638f96876f146101b757600080fd5b80633a51198d146101055780633e23ba1f1461012b57806354e4e2d1146101405780636a8f414f14610153575b600080fd5b61011861011336600461098b565b610244565b6040519081526020015b60405180910390f35b61013e6101393660046109c0565b610267565b005b61013e61014e36600461098b565b610341565b600054610166906001600160a01b031681565b6040516001600160a01b039091168152602001610122565b600354610166906001600160a01b031681565b61011861019f36600461098b565b610429565b61013e6101b2366004610abc565b610438565b6101186101c536600461098b565b610663565b61013e6101d83660046109c0565b610670565b600254610166906001600160a01b031681565b61013e6101fe36600461098b565b610736565b61013e61021136600461098b565b61080a565b61011860065481565b61011860045481565b600154610166906001600160a01b031681565b61011860055481565b6000600654600554836102579190610b7c565b6102619190610ba1565b92915050565b6000546001600160a01b0316331461029a5760405162461bcd60e51b815260040161029190610bc3565b60405180910390fd5b6001600160a01b0381166102ea5760405162461bcd60e51b815260206004820152601760248201527620b2323932b9b99031b0b7103737ba10313290183c181760491b6044820152606401610291565b600280546001600160a01b0319166001600160a01b0383169081179091556040517f58a5a1e9cf22d21d97821f10882ebe3c4299b1b61c456c36b979c94f202053309161033691610bf8565b60405180910390a150565b6000546001600160a01b0316331461036b5760405162461bcd60e51b815260040161029190610bc3565b620493e08111156103ca5760405162461bcd60e51b815260206004820152602360248201527f746f74616c46656550657263656e745f2069732061626f7665207468726573686044820152621bdb1960ea1b6064820152608401610291565b6005819055604080518181526010918101919091526f17dd1bdd185b11995954195c98d95b9d60821b6060820152602081018290527fd883e304be88a7bfede09f439b4aa4c22a6bbeda313ce8731f095d8a156fd56f90608001610336565b60006003610257836002610b7c565b7ff0c57e16840df040f15088dc2f81fe391c3923bec73e23a9662efc9c229c6a008054600160401b810460ff16159067ffffffffffffffff1660008115801561047e5750825b905060008267ffffffffffffffff16600114801561049b5750303b155b9050811580156104a9575080155b156104c75760405163f92ee8a960e01b815260040160405180910390fd5b845467ffffffffffffffff1916600117855583156104f157845460ff60401b1916600160401b1785555b61052f8760008151811061050757610507610c2d565b60200260200101518860018151811061052257610522610c2d565b6020026020010151610894565b8660028151811061054257610542610c2d565b6020026020010151600260006101000a8154816001600160a01b0302191690836001600160a01b031602179055508660038151811061058357610583610c2d565b6020026020010151600360006101000a8154816001600160a01b0302191690836001600160a01b03160217905550856000815181106105c4576105c4610c2d565b6020026020010151600481905550856001815181106105e5576105e5610c2d565b60200260200101516005819055508560028151811061060657610606610c2d565b6020026020010151600681905550831561065a57845460ff60401b19168555604051600181527fc7f505b2f371ae2175ee4913f4499e1f2633a7b5936321eed1cdaeb6115181d29060200160405180910390a15b50505050505050565b6000610261600383610ba1565b6000546001600160a01b0316331461069a5760405162461bcd60e51b815260040161029190610bc3565b6001600160a01b0381166106ea5760405162461bcd60e51b815260206004820152601760248201527620b2323932b9b99031b0b7103737ba10313290183c181760491b6044820152606401610291565b600380546001600160a01b0319166001600160a01b0383169081179091556040517ffe3b74e16a9cd14ba997dc960b15c522e1e6d97220b9825795ef3dbac4977f7f9161033691610bf8565b6000546001600160a01b031633146107605760405162461bcd60e51b815260040161029190610bc3565b60648111156107b15760405162461bcd60e51b815260206004820152601d60248201527f647573744c696d69745f2069732061626f7665207468726573686f6c640000006044820152606401610291565b600481905560408051818152600a918101919091526917d91d5cdd131a5b5a5d60b21b6060820152602081018290527fd883e304be88a7bfede09f439b4aa4c22a6bbeda313ce8731f095d8a156fd56f90608001610336565b6000546001600160a01b031633146108345760405162461bcd60e51b815260040161029190610bc3565b600681905560408051818152601191810191909152702fb832b931b2b73a283932b1b4b9b4b7b760791b6060820152602081018290527fd883e304be88a7bfede09f439b4aa4c22a6bbeda313ce8731f095d8a156fd56f90608001610336565b6001600160a01b0382166108f55760405162461bcd60e51b815260206004820152602260248201527f486f726420636f6e67726573732063616e277420626520307830206164647265604482015261737360f01b6064820152608401610291565b6001600160a01b03811661095d5760405162461bcd60e51b815260206004820152602960248201527f4d61696e7461696e6572732072656773697472792063616e277420626520307860448201526830206164647265737360b81b6064820152608401610291565b600080546001600160a01b039384166001600160a01b03199182161790915560018054929093169116179055565b60006020828403121561099d57600080fd5b5035919050565b80356001600160a01b03811681146109bb57600080fd5b919050565b6000602082840312156109d257600080fd5b6109db826109a4565b9392505050565b634e487b7160e01b600052604160045260246000fd5b604051601f8201601f1916810167ffffffffffffffff81118282101715610a2157610a216109e2565b604052919050565b600067ffffffffffffffff821115610a4357610a436109e2565b5060051b60200190565b600082601f830112610a5e57600080fd5b81356020610a73610a6e83610a29565b6109f8565b8083825260208201915060208460051b870101935086841115610a9557600080fd5b602086015b84811015610ab15780358352918301918301610a9a565b509695505050505050565b60008060408385031215610acf57600080fd5b823567ffffffffffffffff80821115610ae757600080fd5b818501915085601f830112610afb57600080fd5b81356020610b0b610a6e83610a29565b82815260059290921b84018101918181019089841115610b2a57600080fd5b948201945b83861015610b4f57610b40866109a4565b82529482019490820190610b2f565b96505086013592505080821115610b6557600080fd5b50610b7285828601610a4d565b9150509250929050565b808202811582820484141761026157634e487b7160e01b600052601160045260246000fd5b600082610bbe57634e487b7160e01b600052601260045260246000fd5b500490565b6020808252818101527f52657374726963746564206f6e6c7920746f20486f7264436f6e67726573732e604082015260600190565b6040808252600a90820152692fb437b9322a37b5b2b760b11b60608201526001600160a01b0391909116602082015260800190565b634e487b7160e01b600052603260045260246000fdfea2646970667358221220fd2304acd43513e29b96a8ff8a9b7cbf31494834a1b09dd10f778ca2db6e9a1b64736f6c63430008170033",
    "linkReferences": {}
  },
  "methodIdentifiers": {
    "calculateChampionFee(uint256)": "730b2104",
    "calculateOrderbookFee(uint256)": "8f96876f",
    "calculateTotalFee(uint256)": "3a51198d",
    "dustLimit()": "cf71efa9",
    "dustToken()": "7238c915",
    "hordCongress()": "6a8f414f",
    "hordToken()": "9b1721c4",
    "initialize(address[],uint256[])": "7fbbe46f",
    "maintainersRegistry()": "d2e69e47",
    "percentPrecision()": "b994a7c5",
    "setDustLimit(uint256)": "9de03baa",
    "setDustTokenAddress(address)": "9867f1c1",
    "setHordTokenAddress(address)": "3e23ba1f",
    "setPercentPrecision(uint256)": "b120c9d9",
    "setTotalFeePercent(uint256)": "54e4e2d1",
    "totalFeePercent()": "eaad63e9"
  },
  "id": 24
}